:020000040800F2
:10000000B0270020C9010008331900082F18000884
:10001000311900088F050008512400080000000075
:10002000000000000000000000000000751B000838
:10003000C70500080000000091010008011D00082C
:10004000E3010008E3010008E3010008E301000800
:10005000E3010008E3010008E3010008E3010008F0
:10006000E3010008E3010008E3010008E3010008E0
:10007000E3010008E3010008E3010008E3010008D0
:10008000E301000891050008E3010008E30100080E
:10009000E3010008E3010008E3010008E3010008B0
:1000A000E30100087D1E0008E3010008E3010008E9
:1000B000E3010008E3010008E3010008E301000890
:1000C000E3010008E3010008E3010008E301000880
:1000D000E3010008E301000845240008E3010008EB
:1000E000E3010008E3010008E301000800F002F862
:1000F00000F03FF80AA090E8000C82448344AAF183
:100100000107DA4501D100F034F8AFF2090EBAE880
:100110000F0013F0010F18BFFB1A43F0010318473B
:10012000B4260000D4260000103A24BF78C878C155
:10013000FAD8520724BF30C830C144BF04680C60ED
:10014000704700000023002400250026103A28BF35
:1001500078C1FBD8520728BF30C148BF0B60704739
:10016000732900F0A481002070471FB51FBD10B592
:1001700010BD00F0D2F91146FFF7F7FF02F08AF93F
:1001800000F0F0F903B4FFF7F2FF03BC00F0F8F958
:10019000EFF3098050B120E9F00F0A490A681060B6
:1001A00000B501F08FFF5DF804EB03E001F08AFF7A
:1001B0006FF0020E03490A681068B0E8F00F80F390
:1001C00009887047180000200948804709480047FF
:1001D000FEE7FEE7FEE7FEE7FEE7FEE7FEE7FEE7F7
:1001E000FEE7FEE704480549054A064B7047000054
:1001F0007B1E0008ED000008B0210020B027002081
:10020000B0230020B02300200FB41CB5074B06AA72
:100210007B4469460090059800F01FF9002069466C
:1002200000F02EF91CBC5DF814FB00006D0200000C
:100230002DE9F0410E460446002020622046E16888
:10024000884730B3252805D0D4E901219047206A9A
:10025000401CF2E7E168204600278847050018D0D7
:10026000A5F14100192802D820354FF40067324625
:10027000294620462760FFF773FF40B1012804D0CC
:10028000F61D26F007060836D8E7361DD6E72846BD
:10029000DAE7206ABDE8F08170B50C460546012A10
:1002A00005D02878800600D5EA69002302E0012302
:1002B00005E05B1C934202D2E05C0028F9D1A869FA
:1002C000E618C01AA861286A184428622846AFF3C5
:1002D000008004E0D5E9012114F8010B9047B442F5
:1002E000F8D32846AFF3008070BD40EA0103024610
:1002F00030B59B0710D14FF0013400E008C208C9A7
:100300001D1B9D4315EAC41FF8D013F0FF0102F82E
:10031000011B0DD01B0AF8E711F8013B002B02F876
:10032000013B05D011F8013B002B02F8013BF3D152
:1003300030BD10B5431C02E010F8011B71B18107FC
:10034000FAD14FF0013202C88C1A8C4314EAC21160
:10035000F9D0C01A0A0603D0C01E10BDC01A10BDC5
:100360000A0401D0801E10BD0902FCD0401E10BD41
:10037000032A40F2308010F0030C00F0158011F8D1
:10038000013BBCF1020F624498BF11F801CB00F8A9
:10039000013B38BF11F8013BA2F1040298BF00F8FD
:1003A00001CB38BF00F8013B11F0030300F083805C
:1003B000083AC0F0088051F8043B083A51F804CBE1
:1003C000A0E80810F5E7121D5CBF51F8043B40F8A7
:1003D000043BAFF30080D20724BF11F8013B11F8B2
:1003E00001CB48BF11F8012B24BF00F8013B00F8F6
:1003F00001CB48BF00F8012B70474FF0000200B559
:10040000134694469646203922BFA0E80C50A0E837
:100410000C50B1F12001BFF4F7AF090728BFA0E8E5
:100420000C5048BF0CC05DF804EB890028BF40F8B1
:10043000042B08BF704748BF20F8022B11F0804FF3
:1004400018BF00F8012B70477047704770470000D5
:1004500001694A1C02610878704700B58FB0CDE988
:1004600001310021059105497944CDE90310114678
:100470006846FFF7DDFE0FB000BD0000E5FFFFFF9F
:100480000A6802F8010B0A60704710B5436913B19E
:10049000AFF3008001E0FFF7FFFE012010BD1278EE
:1004A00000F124010A7000224A700122EDE7116870
:1004B0004FF0FF32E9E710B5203AC0F00B80B1E809
:1004C0001850203AA0E81850B1E81850A0E8185089
:1004D000BFF4F5AF5FEA027C24BFB1E81850A0E892
:1004E000185044BF18C918C0BDE810405FEA827CAC
:1004F00024BF51F8043B40F8043B08BF7047D207C3
:1005000028BF31F8023B48BF11F8012B28BF20F863
:10051000023B48BF00F8012B7047754600F02CF8ED
:10052000AE4605006946534620F00700854618B0E0
:1005300020B5FFF757FEBDE820404FF000064FF012
:1005400000074FF000084FF0000B21F00701AC4608
:10055000ACE8C009ACE8C009ACE8C009ACE8C00927
:100560008D46704710B50446AFF300802046BDE8C5
:100570001040FFF707BE00000048704750210020E0
:1005800001491820ABBEFEE7260002007047FEE7D7
:10059000014800F08BB80000C420002030B590F86E
:1005A00040500124AC40C56B6C60046863604368D4
:1005B000102B036803D099600068C26030BD9A6058
:1005C0000068C16030BD704772B6FEE710B590F8A4
:1005D00021100022022905D00421816380F8202007
:1005E000012010BD01680B6823F00E030B60016849
:1005F0000B6823F001030B6090F84030C46B0121BD
:1006000001FA03F3636080F8211080F8202010467F
:1006100010BD000010B590F821100024022903D06D
:100620000421816301243DE001680A6822F00E0282
:100630000A6001680A6822F001020A601A4A016829
:10064000914201D1012121E0174A1432914201D196
:1006500010211BE0144A2832914201D1891515E07E
:10066000114A3C32914201D189140FE00E4A5032B6
:10067000914202D14FF4803108E00B4A643291423A
:1006800002D14FF4801101E04FF08071064A083A20
:100690005160012180F82110002180F82010416B69
:1006A00001B18847204610BD080002402DE9F05FE7
:1006B000C16B0C6801680B68D0F840C0042202FAD4
:1006C0000CF2494DDFF824A1494E4A4FDFF828B11A
:1006D000DFF828E122422CD05A072AD50A68920670
:1006E00003D40A6822F004020A600168A94201D119
:1006F000042219E0514501D1402215E0B14202D156
:100700004FF4806210E0B94202D14FF480420BE016
:10071000594502D14FF4802206E0714502D14FF4D1
:10072000800201E04FF080622F4908394A60C16AB7
:100730003BE04FF0020808FA0CF818EA040F4FF0FB
:1007400000094FF0010235D05FEA837832D50B689B
:100750009B0605D40B6823F00A030B6080F8212068
:100760000168A94201D1022219E0514501D120229C
:1007700015E0B14202D14FF4007210E0B94202D14B
:100780004FF400520BE0594502D14FF4003206E01D
:10079000714502D14FF4001201E04FF0007212498E
:1007A00008394A6080F82090816A00291AD0BDE893
:1007B000F05F0847082505FA0CF5254212D01B0703
:1007C00010D50B6823F00E030B6090F84010C36B3C
:1007D00002FA01F15960826380F8212080F82090AC
:1007E000016BE2E7BDE8F09F080002401C000240F8
:1007F0003000024044000240580002406C000240B9
:1008000030B528B308C8134914221944B1FBF2F1DA
:100810008900C16310498163022141771A6843F658
:10082000F0718A43D0E900142143D0E902452C43FA
:1008300021430469214344692143846921431143CD
:10084000196000214163012242770177084630BDDB
:10085000012030BDF8FFFDBF0000024070B5044626
:1008600090F82000002501280CD0012084F82000F9
:1008700094F821600020012E06D084F82000022583
:10088000284670BD022070BD022684F82160A06356
:100890002068066826F0010606602046FFF77EFE07
:1008A000E06A00282068016802D041F00E0106E0ED
:1008B00021F0040101602068016841F00A01016033
:1008C0002068016841F001010160D9E72DE9F84F86
:1008D000DFF8B8910024A9F1040B23460F2709F192
:1008E000040AABF1040EC9E00125A5402A40AA4242
:1008F0007DD1674ED1F804C0ACEB0608B44532D0C8
:1009000014DCBCF1030F3AD009DCBCF1000F2AD093
:10091000BCF1010F1CD0BCF1020F31D11DE0BCF1C4
:10092000110F17D0BCF1120F2AD119E0B8F5881FAA
:1009300019D006DCB8F5803F15D0B8F5801F1FD15F
:1009400011E0B8F5001F0ED0B8F5041F18D10AE069
:10095000CB6815E0CB681B1D12E0CB6808330FE0B5
:10096000CB680C330CE08B682BB1012B4FF00803E4
:1009700003D0456104E0042302E0056100E00023A8
:10098000FF2A01D8064601E000F104064FEA84057B
:1009900001D9A5F12005D6F8008007FA05FC28EA60
:1009A0000C0803FA05F548EA0508C6F800804D680A
:1009B000ED0062D5374DAE6946F00106AE61AD6916
:1009C00024F0030605F001050095334D06EB050CF8
:1009D000DCF80850A607360F07FA06F825EA0805DE
:1009E000DFF8B880404503D14FF0000817E044E03D
:1009F000DFF8AC80404502D14FF001080FE0DFF88E
:100A0000A480404502D14FF0020808E0DFF898804A
:100A1000404502D14FF0030801E04FF0040808FA06
:100A200006F848EA0508CCF808804D68D9F8006057
:100A3000ED024D4601D5164300E096432E604D6809
:100A4000DAF80060AD02554601D5164300E0964342
:100A50002E604D68DBF80060AD035D4601D516439E
:100A600000E096432E604D68DEF80060ED037546A9
:100A700001D5164300E096432E60641C0D682A469B
:100A8000E5407FF431AFBDE8F88F00000804014075
:100A90000000111000100240000001400008014059
:100AA000000C01400010014000140140C26821EA1E
:100AB00002030A4043EA0241016170470AB1016141
:100AC00070470904FBE70000014880687047000098
:100AD0002C00002002488168027811448160704730
:100AE0002C000020074810B5016841F0100101609A
:100AF000032000F09BF80F2000F006F800F04AF801
:100B0000002010BD0020024030B505461C4887B0CB
:100B1000816941F400618161806906A900F4006087
:100B2000009001A800F02AF900F058F91549164A7A
:100B3000B0FBF1F11548491E0260416040F2E73216
:100B40000021C0E903218160816100F00FFB0400F6
:100B500012D10E4800F038FB04000DD1192000F02E
:100B600037F8102D07D200222946192000F03EF850
:100B70000748056000E0012407B0204630BD0000B2
:100B80000010024040420F00002C014008210020CC
:100B9000300000200C4808B5816941F001018161F5
:100BA000816901F001010091C16941F08051C16189
:100BB000C06900F0805000900448416821F0E06175
:100BC00041F00071416008BD00100240000001408A
:100BD000002809DB00F01F0201219140400980003C
:100BE00000F1E020C0F8001170470000F0B40E4B97
:100BF0001B680C46C3F30223C3F10705042D00D97B
:100C00000425191D072901D2002300E0DB1E01265F
:100C100006FA05F1491E214099409E40761E164075
:100C20003143F0BC01F025BC0CED00E0064900F0BA
:100C3000070208684FF6FF03184040EA0220034A03
:100C400010430860704700000CED00E00000FA055A
:100C50002DE9F0470F46050061D0434E306800F0A3
:100C60000700B84209D2306820F0070038433060EE
:100C7000306800F00700B84251D128683B4C81072A
:100C800012D5400703D5606840F4E06060602878C2
:100C9000000703D5606840F4605060606068A96830
:100CA00020F0F000084360602878C00728D068680A
:100CB000012810D02168022810D0890700292EDAD7
:100CC000616821F0030101436160FFF7FDFE80468A
:100CD00041F288390DE021688903EFE78901EDE7EA
:100CE000FFF7F2FEA0EB0801494502D90320BDE859
:100CF000F0876068696800F00C00B0EB810FEFD1FD
:100D0000306800F00700B8420BD9306820F00700C7
:100D100038433060306800F00700B84201D001204D
:100D2000E5E72878400705D56068E96820F4E060C9
:100D3000084360602878000706D56068296920F4B8
:100D4000605040EAC100606000F058F86168084AED
:100D5000C1F30311515CC8400649086006480068A9
:100D6000FFF7D2FE0020C2E7002002400010024040
:100D7000BA27000838000020300000200F2202604F
:100D80000C4A536803F003034360536803F0F00315
:100D90008360536803F4E063C36052684FF4E06318
:100DA00003EAD20202610448006800F0070008600C
:100DB000704700000010024000200240044805492E
:100DC00000684968044AC1F30221515CC840704779
:100DD0003800002000100240CA27000804480549D6
:100DE00000684968044AC1F3C221515CC840704799
:100DF0003800002000100240CA2700080E4A51683F
:100E00000E4801F00C03042B11D0082B0FD10C4815
:100E1000C1F38343C903C05C0AD55168084AC1F3D2
:100E20004041921E515C054A5043B0FBF1F07047BF
:100E300004494843704700000010024000127A0045
:100E4000AA27000800093D002DE9F84F040070D0E2
:100E50002078C04DC00749D06868C0F381000128E0
:100E600007D06868C0F38100022809D16868C00310
:100E700006D52868800339D560680028E7D035E0BA
:100E80006068B0F5803F0BD010B1B0F5A02F11D045
:100E9000286820F480302860286820F4802002E050
:100EA000286840F480302860606890B1FFF70CFE3D
:100EB00006460AE0286840F480202860F0E700BF7A
:100EC000FFF702FE801B642873D828688003F7D5DB
:100ED0000CE0FFF7F9FD064605E000BFFFF7F4FD63
:100EE000801B6428F0D828688003F7D420789A4EB5
:100EF00080074FF001094FF0000839D5686810F0FD
:100F00000C0F07D06868C0F38100022809D1686817
:100F1000C00306D42868800714D52069012808D1A9
:100F200010E02069B0B1C6F80090FFF7CDFD07468C
:100F300005E00AE1FFF7C8FDC01B0228C4D82868F5
:100F40008007F7D52868616920F0F80040EAC10001
:100F500028600DE0C6F80080FFF7B6FD074604E004
:100F6000FFF7B2FDC01B022823D828688007F7D4FA
:100F7000207800072CD57948A169D9B1C0F8009034
:100F8000FFF7A2FD074604E0FFF79EFDC01B022805
:100F90000FD8686A8007F7D571484FF4FA51006896
:100FA000B0FBF1F0009000BF0098411E0091FAD212
:100FB0000EE080E0C0F80080FFF786FD074604E001
:100FC000FFF782FDC01B022875D8686A8007F7D436
:100FD0002078400760D5E8690027C00008D4E86998
:100FE00040F08050E861E869012700F080500090EF
:100FF0005C480168C90513D40168834641F48071D7
:101000000160FFF761FD824606E000BFFFF75CFD6F
:10101000A0EB0A0064284ED8DBF80000C005F5D527
:10102000E06801280AD008B1052813D0286A20F00A
:1010300001002862286A20F0040002E0286A40F0DB
:1010400001002862E06841F2883B98B1FFF73CFD5F
:1010500082460BE0286A40F004002862EEE700BFF9
:10106000FFF732FDA0EB0A0159455AD8286A8007DC
:10107000F6D50CE0FFF728FD824605E0FFF724FDDA
:10108000A0EB0A0159454CD8286A8007F6D41FB155
:10109000E86920F08050E861E06988B36968C1F3CD
:1010A0008101022944D00228C6F8608004D0FFF7ED
:1010B0000BFD044638E034E0FFF706FD074604E088
:1010C000FFF702FDC01B02282BD828688001F7D447
:1010D000206AB0F5803F05D16868A16820F400302F
:1010E00008436860D4E908010843696821F4741171
:1010F00008436860C6F86090FFF7E6FC044606E027
:1011000025E000BFFFF7E0FC001B022809D8286893
:101110008001F7D51BE000BFFFF7D6FC001B0228BB
:1011200002D90320BDE8F88F28688001F4D40EE0CE
:101130000128F7D06868226A00F48031914204D116
:10114000616A00F47010884201D00120EAE70020B3
:10115000E8E70000001002400000424280044242E2
:1011600038000020007000407047704710B5040040
:1011700003D094F83D0010B107E0012010BD00201D
:1011800084F83C00204600F01EF8022084F83D0060
:10119000211D206800F078FE012084F8460084F8C4
:1011A0003E0084F83F0084F8400084F8410084F851
:1011B000420084F8430084F8440084F8450084F831
:1011C0003D00002010BD704790F83D10012901D06E
:1011D00001207047022180F83D100168CA6842F082
:1011E0000102CA6000680B49884208D0B0F1804F04
:1011F00005D00949884202D00849884204D1816853
:1012000001F00701062903D0016841F001010160E6
:1012100000207047002C01400004004000080040FE
:1012200070472DE9F04104460068C66805694FF033
:101230000007A90713D5B10711D5F91E01610120D7
:101240002077206880698007204602D0FFF7E8FFFA
:1012500004E000F07EF8204600F07CF8277768076D
:1012600016D5700714D521686FF0040008610220BC
:1012700020772068806910F4407F204602D0FFF775
:10128000CFFF04E000F065F8204600F063F8277710
:10129000280715D5300713D521686FF008000861BD
:1012A000042020772068C0698007204602D0FFF71D
:1012B000B7FF04E000F04DF8204600F04BF8277728
:1012C000E80616D5F00614D521686FF01000086105
:1012D000082020772068C06910F4407F204602D0A3
:1012E000FFF79EFF04E000F034F8204600F032F8EB
:1012F0002777E80708D0F00706D021686FF00100D3
:101300000861204600F028F8280608D5300606D5E2
:1013100021686FF0800008612046FFF725FF68060E
:1013200008D5700606D521686FF040000861204698
:1013300000F01CF8A8060AD5B00608D521686FF0A1
:10134000200008612046BDE8F041FFF70EBFBDE870
:10135000F08170477047000000680349884201D15E
:10136000FFF7B8BB70470000002C01407047704782
:1013700070470000F8B5016804460868CA684B6900
:1013800010F00F0F4FF0000559D003F0010602F4E2
:101390009077374365D0C10705D0D10503D5616C7F
:1013A00041F001016164410705D5D90703D0616CA3
:1013B00041F002016164810705D5D90703D0616C52
:1013C00041F004016164010707D502F020013143B7
:1013D00003D0616C41F008016164616C00293AD06E
:1013E000800604D5900602D5204600F033FF206821
:1013F0004069616CC0F38010090700D460B32046D7
:1014000000F0F3FE20684069400621D520681430C2
:1014100050E8001F21F0400140E80012002AF5D1F9
:10142000E06BA8B16D494163E06BFFF7F3F800286A
:1014300011D0E06B416B01B0BDE8F0400847830676
:101440000FD593060DD52046BDE8F84000F002BF49
:101450002046FFF78DFFF8BD2046FFF789FF656442
:10146000F8BD266B2023012E7CD1C6067AD5D60680
:1014700078D508684868009048694FF00206400631
:1014800040D5E16B086840680004000CE8D0A28DEC
:101490008242E5D9E085886920282DD020680C306B
:1014A00050E8001F21F4807140E80012002AF5D1B5
:1014B0002068143050E8001F21F0010140E80012BC
:1014C000002AF5D12068143050E8001F21F04001B7
:1014D00040E80012002AF5D184F8423025632068E4
:1014E0000C3050E8001F21F0100140E80012002AE3
:1014F000F5D1E06BFFF76AF86663A08DE18D401AC5
:1015000081B22AE0A08DE18D401A81B2E08D0028E1
:10151000A6D00029A4D022680C3252E8000F20F493
:10152000907042E80007002FF5D12068143050E891
:10153000002F22F0010240E80027002FF5D184F8A7
:101540004230256320680C3050E8002F22F0100252
:1015500040E80023002BF5D166632046FFF707FF24
:10156000F8BDFFE705062BD5150629D594F84100EF
:101570002128F5D1A068B0F5805F01D12069B0B114
:10158000206A411C2162216800784860E08C401E7E
:101590000004000CE084E3D12068C16821F08001E0
:1015A000C1602068C16841F04001C160D8E7206A8D
:1015B0000088C0F308004860206A801C2062E5E7CC
:1015C0004006CDD55006CBD5CA68204622F0400251
:1015D000CA6084F8413000F01BF9C1E745210008DA
:1015E00070B5040004D094F84100002510B106E065
:1015F000012070BD84F84050204600F023F82420DC
:1016000084F841002068C16821F40051C16020467F
:1016100000F082FE2068016921F490410161206898
:10162000416921F02A0141612068C16841F40051FB
:10163000C1606564202084F8410084F8420065633D
:10164000002070BD70B586B0002506460095019556
:10165000029503950068224988423FD12149C86913
:1016600040F40030C861C86900F400300490886913
:1016700040F00400886188691B4C00F0040004906D
:101680000420009002200190032003906946204628
:10169000FFF71CF90820CDE90005694620460295B0
:1016A000FFF714F9124C114820601020C4E901051D
:1016B0008020C4E903056561A5612046E561FFF767
:1016C0009FF808B1FEF780FFB46300221146262080
:1016D0006662FFF78BFA2620FFF77AFA06B070BD34
:1016E0000044004000100240000801408000024019
:1016F000C420002070472DE9F843044690F84100CB
:10170000984616460D46202802D00220BDE8F883F0
:1017100085B17EB100206064212084F84100FFF78C
:10172000D3F9A6848146E684A0682027B0F5805FBF
:1017300002D003E00120E9E7206910B12E46002520
:101740000EE000260CE08021204600F041FEA8B902
:10175000C6B116F8010B21684860E08C401EE08499
:10176000E08C4B464FF00002CDF800800028EAD113
:101770004FF04001204600F02BFE40B184F841704C
:101780000320C3E735F8020BC0F30800E3E784F851
:1017900041700020BAE7000070B5044690F841009F
:1017A000202801D0022070BD49B342B32162A28437
:1017B000E28400206064212384F84130A56B114B42
:1017C000AB62A56B104BEB62A56B104B2B63A36B4D
:1017D0005863256813462A1DA06BFFF73FF8216860
:1017E0006FF0400008602068143050E8001F41F09E
:1017F000800140E80012002AF5D1002070BD0120D0
:1018000070BD00009F210008E1210008552100085B
:1018100000680449884203D10348406800F0BAB91F
:101820007047000000440040240000207047FEE79D
:10183000094C0026A66072B625695DB1286A206150
:1018400000B1466262B6686800F0C0FE284600F04B
:10185000BDFEEFE762B6EDE700000020094808B5DD
:10186000416941F0010141614069002200F001003D
:10187000009011461120FFF7B9F9BDE8084011208A
:10188000FFF7A6B90010024070B586B000241848D2
:101890000094019402940394816941F010018161E4
:1018A000816901F010010491816941F02001816199
:1018B000816901F020010491816941F00401816195
:1018C00080690C4E00F004004FF400550490002293
:1018D00029463046FFF7F2F801200095CDE90104D2
:1018E0000220039069463046FEF7F0FF06B070BD57
:1018F00000100240001001400C4810B50A49016078
:101900004FF4E1314160002181600C22C160C0E9E7
:1019100004128161C161FFF763FE002803D0BDE8B6
:101920001040FEF751BE10BD004400407C20002056
:10193000FEE7FEE7084C88B0606800F05BF9694696
:10194000206800F02DF86846FEF7F3FC82B2694685
:101950000248FFF721FFEFE7240000207C20002051
:1019600070B50E46050015D0A6B1202000F068FE27
:10197000041E0ED005FB06F000F062FE206058B198
:1019800000206660C4E9025020616061E061A061EE
:10199000204670BD002070BD204600F017FEF9E71C
:1019A0002DE9F0478946040008D0B9F1000F05D0B1
:1019B00072B6DFF8D0800026334D1FE00020BDE86E
:1019C000F087A969022000220874A069034601E09B
:1019D0000246006A20B1C768D1F80CC06745F7D24B
:1019E000F2B3C1E90802116200B14162D8F80010F7
:1019F00041F08051C8F8001062B672B660690028E4
:101A0000DFD0D4E90002E16801FB02014846FEF79D
:101A1000AFFCD4E90210401CB0FBF1F201FB120054
:101A2000E0606069401E6061E7693FB3386AE06169
:101A300000B146623E627E623E74A869D8B1F96820
:101A4000C068814217D9E86820B1C268914212D9B2
:101A500000F024FEEF60D8F8001041F0805100E063
:101A600002E0C8F8001009E0C1E90836A06900B139
:101A70004162A161BAE7384600F010FE62B601206B
:101A80009DE7000004ED00E0000000202DE9F04794
:101A9000040006D029B172B6DFF8D0900026344D8C
:101AA00020E00020BDE8F087AA690220002310741E
:101AB000E069074601E00346006A28B1D0F80CC08F
:101AC000D2F80C80C445F6D2F3B3C2E908031A6217
:101AD00000B14262D9F8002042F08052C9F80020DB
:101AE00062B672B6A26860699042DDD2D4E90002A3
:101AF000236903FB0200FEF73BFC2069A168401C40
:101B0000B0FBF1F201FB120020616069401C6061D2
:101B1000A7693FB3386AA06100B146623E627E6247
:101B20003E74A869D8B1F968C068814217D9E868DD
:101B300020B1C268914212D900F0B0FDEF60D9F82F
:101B4000001041F0805100E002E0C9F8001009E007
:101B5000C2E90876E06900B14262E261BAE738465C
:101B600000F09CFD62B601209CE7000004ED00E05F
:101B700000000020704710B50446082000F060FD0A
:101B8000002806D00CB1012100E0002101700021E5
:101B9000416010BD30B5002826D072B6446804B349
:101BA000216A4160002001B1486220620F4D6062ED
:101BB0002074A86988B1E168C06881420DD9E868DD
:101BC00020B1C268914208D900F068FD0848EC6075
:101BD000016841F08051016005E0204600F05EFDA3
:101BE00001E00121017062B630BD0000000000205C
:101BF00004ED00E0F0B5002821D072B60178002491
:101C0000012907D012498A69022100231174416811
:101C10000D4603E0047011E00B46096A19B1CE6865
:101C2000D768BE42F8D25BB1C2E908131A6201B1AB
:101C30004A620848016841F08051016062B6F0BD17
:101C4000C2E90854416801B14A624260F1E700000C
:101C50000000002004ED00E072B60F216FF00100DB
:101C600000F0F7FB4FF0FF350F21284600F0F1FBA5
:101C7000002080F30988184E04467060B060014669
:101C800016A2184800F0A2F917A73846FEF751FB34
:101C900082B22B4639461748FFF72DFD01203070E0
:101CA00015484FF47A710068B0FBF1F0401EB0F1B6
:101CB000807F09D24FF0E02670610F21284600F0A6
:101CC000C8FBB461072030610C48016841F08051C5
:101CD000016062B6FEE70000000000204F535F493C
:101CE000646C65003118000874696D653D300D0A3B
:101CF000000000007C2000203800002004ED00E0FF
:101D0000F0B591B0FEF7E6FE344C6068401C6060B0
:101D1000A068401CA060A068B0F5967F2BD9A2698E
:101D20000AB1143200E02EA22FA16846FEF76CFA29
:101D300000216A46364806E003681C68E44324062E
:101D4000FBD45D60491C555C002DF5D1006801682D
:101D5000C9434906FBD4012080F31388BFF34F8F9A
:101D60002C4801682C4A01F4E06111430160BFF383
:101D70004F8F00BFFDE7274EE069083E10B172B6F5
:101D8000002724E0306840F08050306011B0F0BD92
:101D9000286AE06100B147622F626F622F74A06908
:101DA00080B1E968C06881420CD9E06820B1C2689E
:101DB000914207D900F072FCE560306840F0805035
:101DC000306002E0284600F069FCE06920B1054679
:101DD000806861688842DBD962B6D3E700000020E2
:101DE0004E554C4C000000000D0A53575F574454A9
:101DF0005F54494D454F5554212072756E6E696E82
:101E000067207461736B3A2025730D0A000000008F
:101E10007C2000200CED00E00400FA0530B58FB006
:101E200028216846FEF7E9FA14210AA8FEF7E5FA28
:101E300001210804CDE90010002402940225049138
:101E4000CDE907504FF4E01009906846FEF7FCFF1B
:101E500008B172B6FEE70F20CDE90A054FF48060A5
:101E6000CDE90C4002210AA80E94FEF7F1FE0028ED
:101E700001D072B6FEE70FB030BD70470148FFF7E2
:101E8000D0B9000008210020F0B50268194B1A4CA7
:101E90001A4D4FF08047984205D0B84203D0A04277
:101EA00001D0A84203D122F070064A68324398421A
:101EB00005D0B84203D0A04201D0A84203D122F4F9
:101EC0004074CA6822434C6922F0800222430260B7
:101ED0008A68C2620A688262984201D10969016314
:101EE000012141610169C90703D0016921F00101A4
:101EF0000161F0BD002C01400004004000080040DA
:101F000088B00A4D0A4E6C464FF4FA576946286865
:101F100000F038FB204407A1FEF7E7F96946306876
:101F2000FFF7B4FD384600F00BFCEFE7040000209B
:101F3000240000206D7320310D0A000088B0DFF806
:101F400038800E4D0E4E6C464FF400574FF4FA7920
:101F500039464046FEF7AAFD6946286800F012FBA4
:101F6000204408A1FEF7C1F969463068FFF78EFDED
:101F7000484600F0E5FBEBE70010014004000020BC
:101F8000240000206D7320320D0A000088B00A4D35
:101F90000A4E6C4640F654376946286800F0F2FA5B
:101FA000204407A1FEF7A1F969463068FFF76EFDEE
:101FB000384600F0C5FBEFE70400002024000020B5
:101FC0006D7320335F5649500D0A00002DE9F04132
:101FD00015460F46060001D0102F02D30020BDE8A1
:101FE000F081282000F02CFB041EF8D04FF4806014
:101FF00000F026FB38B300F5806102C4002285C4DE
:102000000120030604F81029071F2168091F216019
:1020100001281CD002281DD003281ED0401C0A60B5
:102020001028F2DD00202318295C1975295C11B1F4
:10203000401C0928F7DB62771B4D22626262287818
:1020400001280DD01FE0204600F0C0FAC6E70220AC
:102050000B60DAE703200E60D7E704200F60D4E7B7
:10206000A869E168C06881420DD9E86820B1C268FA
:10207000914208D900F012FB0C48EC60016841F075
:102080008051016002E0204600F008FB08A52846C8
:10209000FEF74FF982B24FF0FF3329460848FFF7A9
:1020A0002AFB20469BE700000000002004ED00E032
:1020B0006372656174657461736B0D0A00000000E2
:1020C0007C2000202DE9F041DFF870800127404698
:1020D000D8F80C108069002579B128B1017C01295C
:1020E00002D1057400F0DAFAD8F80C00C8F818002C
:1020F0000774C8F80C50BDE8F081114E0F2400BFE2
:1021000056F8241031B1611CF5D060B1017C012971
:1021100003D008E0641EF3D5EDE7C168A142EAD818
:10212000057400F0BBFA56F824004446C8F81800BD
:1021300000F0CAFAA0690774DDE700000000002083
:102140003C00002010B5406A0021C185C184FFF722
:102150000FF910BD70B5446A2068406994F84110C9
:10216000C0F3C0100025212904D118B1E584204610
:1021700000F062F82068406994F84210C0F38010C3
:10218000222904D118B1E585204600F02EF8606CB4
:1021900040F0100060642046FFF7EAF870BD10B50B
:1021A0000146406A09680968890616D40021C1847D
:1021B0000168143151E8002F22F0800241E8002329
:1021C000002BF5D101680C3151E8002F42F040029C
:1021D00041E80023002BF5D110BDFFF719FB10BD1E
:1021E00010B5406AFFF722FB10BD01680C3151E8C1
:1021F000002F22F4907241E80023002BF5D10168F2
:10220000143151E8002F22F0010241E80023002B95
:10221000F5D1016B012909D101680C3151E8002F7A
:1022200022F0100241E80023002BF5D1202180F894
:10223000421000210163704701680C3151E8002F02
:1022400022F0C00241E80023002BF5D1202180F8C4
:102250004110704708B590F84210222901D00220A1
:1022600008BD82684FF480539A4201D1016921B1BF
:10227000816A9A421BD04AB10AE00268816A5268B8
:10228000C2F308020A80816A891C08E0026972B1FF
:102290000268526802F07F020A70816A491C8162FA
:1022A000C18D491E0904090CC18503D01BE00268D9
:1022B0005268F1E70168CA6822F02002CA6001682A
:1022C000CA6822F48072CA6001684A6922F0010279
:1022D0004A61202180F8421000214163026B012AEB
:1022E00003D0FFF707FA002008BD016301680C3135
:1022F00051E8002F22F0100241E80023002BF5D115
:1023000001680A68D20602D50A6849680091818D81
:10231000FFF72DF8E7E7000070B504460068016993
:10232000E26821F44051114301612169A06808432A
:10233000616908432168CA6841F20C639A43024309
:10234000CA6020684169A26921F44071114341616A
:102350001E492068884202D1FEF740FD01E0FEF7E9
:102360002DFD00EBC00101EB0012606864218000CC
:10237000B2FBF0F3B3FBF1F36FF018067343B2FB5B
:10238000F0F5B2FBF0F605EB8305322303EB051500
:10239000B5FBF1F5B6FBF1F605F0F00505EB06151A
:1023A000B2FBF0F6B2FBF0F0B0FBF1F06FF0180208
:1023B000504306EB800003EB0010B0FBF1F0216806
:1023C00000F00F002844886070BD00000038014014
:1023D0002DE9F843984617460D460446089E24E02A
:1023E000701C22D0FEF770FBA0EB0800B0421AD898
:1023F000CEB12068C168490717D5802D15D0402D72
:1024000013D00168C94309070FD40168002540684B
:1024100000902046FFF7E9FE0820606484F84050F1
:102420000120BDE8F8830320FBE72068006835EA57
:10243000000004D00020B842D2D00020F1E70120F3
:10244000F9E700000148FEF795BF00007C2000205E
:10245000FEE70907090E002804DB00F1E02080F800
:102460000014704700F00F0000F1E02080F8141D08
:1024700070470907090E002804DB00F1E02080F80E
:102480000014704700F00F0000F1E02080F8141DE8
:1024900070470000FEF726FBFFF7C0FCFFF7F4F9DA
:1024A000FFF7DCF9FFF728FA01221C4E55032946F5
:1024B0003046FEF703FB1AA42046FDF73AFF82B22E
:1024C0004FF0FF3321461F48FFF715F929463046E4
:1024D000FEF7ECFA00F0A6F820210A20FFF740FAF8
:1024E000194C20600120FFF746FB606017A2022113
:1024F0001948FFF76BFD19A201211A48FFF766FD85
:1025000019A201211A48FFF761FD1AA202211C48F5
:10251000FFF75CFDFFF7A0FBFEE7000000100140A5
:102520000D0A2D2D2D2052544F532053797374656D
:102530006D205374617274696E67202D2D2D0D0A04
:10254000000000007C200020240000205072696EF2
:10255000745461736B000000351900085461736B8B
:1025600031000000011F00085461736B320000004D
:102570003D1F00085461736B335F564950000000E3
:102580008D1F0008FFB500231E4678B100220A25E2
:102590004FEA0D04B0FBF5F705FB1707B0FBF5F0AC
:1025A0003037A754521C0028F4D109E030200870BD
:1025B0004E70012004B0F0BD521EA05CC8545B1CDC
:1025C000002AF9DCCE54D8B2F4E7000010B5002898
:1025D00023D072B6124B002108385A6901E0114627
:1025E00012680AB18242FAD30260B9B10860026887
:1025F00042B143681C18944204D154682344436098
:102600001268026041B14A685318834204D143689A
:102610001A444A600068086062B610BD5861E6E777
:1026200000000020054904484861002101604FF482
:1026300000514160704700007C0000200000002035
:1026400030B500281DD0144CC01D20F00701606972
:10265000002272B6083110E043688B420BD370B190
:102660005D1A102D10D343185D6005681D60416030
:1026700042B113600BE0024600680028ECD162B65C
:10268000002030BD636102E001681AB1116062B6DA
:10269000083030BD6161FAE70000002000280BD04F
:1026A00000210174074BC26853F8221029B14A6A0D
:1026B0001062C0E908124862704743F82200406285
:1026C000006270473C00002030B5002832D0017C09
:1026D00001292FD004292DD0002221B1022916D0A2
:1026E000032914D024E0046A1349C368844202D148
:1026F00041F823201CE051F82350854201D141F8D4
:102700002340D0E908131962D0E908130FE0436AA7
:1027100043B90A4B022902D0032903D004E0016A1D
:10272000D96101E0016A1962016A09B1436A4B6229
:102730004262026230BD00003C0000200000002028
:10274000F0B5174C68B1174A916900290DD072B6DF
:1027500002230B745368C6188E60D06900230546A7
:1027600006E0206840F080502060F0BD0346006A1B
:1027700010B18768B742F9D300263DB153B1C1E922
:102780000803196200B1416262B6EAE7D1614E62A4
:102790000E62F9E7C1E908566962D161F4E7000009
:1027A00004ED00E00000002001020203040506071A
:1027B00008090A0B0C0D0E0F10100000000000009D
:1027C00000000102030406070809000000000102DE
:1027D00003040000F4270008000000203C00000073
:1027E00028010008302800083C0000207427000061
:1027F000440100080000000000000000000000008C
:1028000000000000000000000000000000000000C8
:1028100000000000000000000000000000000000B8
:1028200001000000100000000000000000127A000B
:04000005080000ED02
:00000001FF
