:020000040800F2
:10400000103800206D42000857760008E77300085A
:10401000557600082B5D0008F182000800000000C2
:1040200000000000000000000000000029780008E7
:10403000635D000800000000354200089579000823
:10404000874200088742000887420008874200082C
:10405000874200088742000887420008874200081C
:10406000874200088742000887420008874200080C
:1040700087420008874200088742000887420008FC
:10408000874200082D5D000887420008874200082B
:1040900087420008874200088742000887420008DC
:1040A000874200080D7B000887420008874200080D
:1040B00087420008874200088742000887420008BC
:1040C00087420008874200088742000887420008AC
:1040D0008742000887420008E582000887420008FE
:1040E000655D0008874200088742000800F002F87A
:1040F00000F090F80AA090E8000C82448344AAF1F2
:104100000107DA4501D100F085F8AFF2090EBAE8EF
:104110000F0013F0010F18BFFB1A43F001031847FB
:104120003448000054480000103A24BF78C878C1D1
:10413000FAD8520724BF30C830C144BF04680C60AD
:10414000704700000023002400250026103A28BFF5
:1041500078C1FBD8520728BF30C148BF0B607047F9
:104160006E2900F03983702900F09984662904F0E3
:104170005983652904F05683672904F05383612924
:1041800004F0528303681B0A28BF41F080016929AB
:1041900000F00281642900F0FF80752900F0FC80A6
:1041A0006F2900F02684782900F06584E92900F061
:1041B000C183E42900F0BE83F52900F0BB83EF2919
:1041C00000F02384F82900F064840368DB0928BF29
:1041D00041F08001632900F04283732900F0478396
:1041E000E32901F07580F32901F07A8000207047FF
:1041F0001FB501F0C7F804000020002104F0FCFA0C
:10420000401C60600020002104F0E0FAE0601FBD67
:1042100010B510BD01F088F81146FFF7E9FF04F072
:1042200001F901F065F903B4FFF7F2FF03BC01F0F7
:10423000ADF90000EFF3098050B120E9F00F0A4911
:104240000A68106000B503F08BFE5DF804EB03E034
:1042500003F086FE6FF0020E03490A681068B0E8AA
:10426000F00F80F309887047180000200948804744
:1042700009480047FEE7FEE7FEE7FEE7FEE7FEE748
:10428000FEE7FEE7FEE7FEE704480549054A064B60
:1042900070470000FD7A0008ED4000081032002051
:1042A0001038002010340020103400207CB51D464A
:1042B00016460C00009001D02044401E074B7B4462
:1042C0002A4669460190304600F09FFA05461CB127
:1042D0000020694600F0ACFA28467CBD7905000054
:1042E0000FB41CB5084B06AA7B446946009005989C
:1042F00000F08BFA04460020694600F099FA204647
:104300001CBC5DF814FB0000450500000FB47CB533
:104310000C0009AA009001D02044401E084B7B44A9
:1043200069460190089800F070FA05461CB100201B
:10433000694600F07DFA28467CBC5DF814FB00005D
:104340001905000070B50C460546012A05D02878ED
:10435000800600D5EA69002302E0012305E05B1C2A
:10436000934202D2E05C0028F9D1A869E618C01A8D
:10437000A861286A18442862284600F09BF904E0E6
:10438000D5E9012114F8010B9047B442F8D328462F
:1043900000F0A6F970BD00002DE9F04106460024AA
:1043A00010687529314616A510D000F0AAF900282A
:1043B00002DA404213A507E031688A0701D512A549
:1043C00002E0490704D511A5012401E000F0A2F99B
:1043D00000210A2206F1240709E0B0FBF2FCB0FB41
:1043E000F2F302FB1C00303078541846491C0028B8
:1043F000F3D123462A463046BDE8F04100F093B998
:10440000000000002D0000002B0000002000000034
:104410002DE9F05F894604464FF0000ADFF874B1D9
:10442000FB44C0F820A02046E1688847002874D0EB
:10443000252806D0D4E901219047206A401C20623B
:10444000F1E700265F462046E168884720280546B8
:1044500007DB312D05D2781910F8200C08B106437E
:10446000F1E7B00701D526F00406C4F81CA0002728
:10447000C4F818A02A2D09D0284603F06EFF38B3DF
:1044800004EB8708303DC8F8185019E059F8041BB0
:10449000204604EB87029161E1688847012F0546B9
:1044A00018D1E069002820DA26F020061DE0D8F8AF
:1044B000180000EB800005EB40003038C8F8180009
:1044C0002046E1688847054603F047FF0028EED103
:1044D000012F0AD02E2D08D12046E16888477F1C85
:1044E0000546022F46F02006C4DBA069002803DA47
:1044F000404246F00106A061F00701D026F0100608
:104500006C2D0BD0682D09D04C2D39D06A2D35D0AB
:10451000742D35D07A2D33D016E038E0E1682F467F
:1045200020468847B842054609D16C2F26D04FF463
:104530008060E168064320468847054604E06C2F0A
:104540001AD04FF4807006430DB3A5F1410019282D
:1045500002D8203546F400664A46294620462660A1
:104560004E46FFF7FDFD80B101280BD0F61D26F069
:10457000070000F1080956E74020E4E78020D8E76B
:104580000020D6E706F104094DE7284652E7206AE5
:10459000BDE8F09F3244000010B5431C02E010F863
:1045A000011B71B18107FAD14FF0013202C88C1A98
:1045B0008C4314EAC211F9D0C01A0A0603D0C01EF7
:1045C00010BDC01A10BD0A0401D0801E10BD090222
:1045D000FCD0401E10BD032A40F2308010F0030CC6
:1045E00000F0158011F8013BBCF1020F624498BF46
:1045F00011F801CB00F8013B38BF11F8013BA2F1E3
:10460000040298BF00F801CB38BF00F8013B11F05D
:10461000030300F04F82083AC0F0088051F8043BD1
:10462000083A51F804CBA0E80810F5E7121D5CBF6A
:1046300051F8043B40F8043BAFF30080D20724BF9D
:1046400011F8013B11F801CB48BF11F8012B24BF31
:1046500000F8013B00F801CB48BF00F8012B704780
:104660004FF0000200B5134694469646203922BF0B
:10467000A0E80C50A0E80C50B1F12001BFF4F7AF56
:10468000090728BFA0E80C5048BF0CC05DF804EB38
:10469000890028BF40F8042B08BF704748BF20F8A6
:1046A000022B11F0804F18BF00F8012B70477047A4
:1046B0007047704770B5044685690068C10601D52A
:1046C000302600E02026C00707D070BDD4E90121C4
:1046D00030469047206A401C20626D1EF6D570BDA2
:1046E00070B5044685690078C00707D170BDD4E96C
:1046F000012120209047206A401C20626D1EF6D5C3
:1047000070BD09684A0501D540B27047C905FCD59E
:1047100000B2704709684A0501D5C0B27047C905A3
:10472000FCD580B270472DE9F0470D469946924678
:10473000044600F124080168880604D5E06921F0E8
:104740001001216000E00120A84201DD471B00E0CC
:104750000027A1697A1902EB0900081AA0612078E4
:10476000C00602D42046FFF7A5FF002608E0D4E9E2
:1047700001211AF806009047206A401C761C20622E
:104780004E45F4DB2078C0060AD52046FFF792FF9D
:1047900006E0D4E9012130209047206A401C2062C5
:1047A000381EA7F10107F4DC07E0D4E9012118F86D
:1047B00005009047206A401C2062281EA5F10105D3
:1047C000F3DC2046FFF78CFF2078000602D502209C
:1047D000BDE8F0870120FBE711680268006A530515
:1047E00001D508700AE0D30501D5088006E013065C
:1047F00003D5C217C1E9000200E00860012070473C
:1048000001694A1C02610878704700B58FB0CDE994
:1048100001310021059105497944CDE90310114684
:104820006846FFF7F5FD0FB000BD0000E5FFFFFF94
:104830000A6802F8010B0A607047D1E900239A4226
:1048400002D2531C0B601070704710B5436913B14E
:10485000AFF3008001E0FFF775FD012010BD127875
:1048600000F124010A7000224A700122EDE711686C
:104870004FF0FF32E9E700002DE9FF5F15468A4659
:104880000446DFF8AC80F8440027D8E900103E4623
:10489000CDE9001010E03AF816106A4602A800F0C0
:1048A00023FD411C07D02178890603D5E269391818
:1048B00091420DD80744761C2078800602D5E06925
:1048C000B84205DDAE42E6DB3AF816000028E2D138
:1048D000A069C01BA0612046FFF7ECFED8E90010DC
:1048E000CDE90010002017E03AF818106A4602A837
:1048F00000F0FAFCB0F1FF3F81460BD000250DF12E
:10490000080B05E0D4E901211BF8050090476D1C58
:104910004D45F7D308F10100B0428046E4DB206A40
:10492000384420622046FFF7DBFEBDE8FF9F000011
:10493000DE3F00002DE9F0418046D21D22F0070243
:104940000025D2E90002F52915A614D0011E72F146
:10495000000106DA0023D0EB030063EB020211A68C
:1049600008E0D8F800108B0701D50FA602E0490730
:1049700001D50EA601251146002408F1240704E004
:1049800000F0CAF830323A55641C50EA0102F7D1FF
:104990002B46324621464046BDE8F041FFF7C3BEF4
:1049A000000000002D0000002B000000200000008F
:1049B00030B4002100F1240408E002F00705D20819
:1049C000303542EA4372DB086554491C52EA03055C
:1049D000F3D10468002310A2250707D5A40600D44C
:1049E00021B1C46901230DA2641EC46130BCFFF76C
:1049F0009ABE10B5044621461068FFF78BFE0246AA
:104A00002046BDE810400023D2E7D21D22F0070166
:104A1000D1E90023CCE700000000000030000000D6
:104A2000F0B40D460188090502D5214C7C4402E012
:104A30001F4C7C440E34002100F1240608E002F0F3
:104A40000F071209E75D42EA03721B097754491CFC
:104A500052EA0307F3D102780023120704D5702D20
:104A600006D009B1022311342246F0BCFFF75BBE29
:104A700001231034F8E770B504460D46214610684E
:104A8000FFF748FE024629462046BDE87040002355
:104A9000C6E7D21D22F00703D3E90023C0E703686D
:104AA000126843F0200303600823C3610023B7E7C3
:104AB000403E000010B5203AC0F00B80B1E818501D
:104AC000203AA0E81850B1E81850A0E81850BFF4F8
:104AD000F5AF5FEA027C24BFB1E81850A0E8185097
:104AE00044BF18C918C0BDE810405FEA827C24BFEB
:104AF00051F8043B40F8043B08BF7047D20728BF79
:104B000031F8023B48BF11F8012B28BF20F8023BC7
:104B100048BF00F8012B704730B5B0F10A024FEAE8
:104B2000900E71F100034EEA817EB0EB0E0061EB56
:104B300091014FEA101E4EEA017E10EB0E0041EB90
:104B400011114FEA102E4EEA016E10EB0E0041EBF0
:104B500011214FEA104E4EEA014E10EB0E0041EBD0
:104B60001141401841F100014FEAD00040EA417084
:104B70004FEAD10110EB80054FEA810444EA9074BA
:104B800044EB01046D1944EB0404521BA3414FF0A4
:104B9000000348BF0A3200D530BD401C41F100017E
:104BA00030BD70472DE9FF4F0C461E464FF0FF37D2
:104BB0008BB0D2E90001DDF860800A908A46C1F32B
:104BC0000A5505B93D46002108464FF00000BAF1EC
:104BD000000F00F4400005DA00EB80004FF44001C4
:104BE00001EA50004FEA9059B9F1010F00DDB946D2
:104BF0000A9850EA4A000ED044F61050A5F2FF354C
:104C000045432F14B8F1000F1ED07542291E1EDD3A
:104C1000C9F100021CE0B8F1010F4FF0000001D013
:104C2000302103E0F24305E02154401CB042FBDB9D
:104C300030460022002121540B99C1F80880C1E9B7
:104C400000200FB0BDE8F08FBD1B6D1CDEE74A46AB
:104C500000DA694206A800F0D9FB06AB93E807002A
:104C600003AB83E8070050460A9900F096FC8DE8F4
:104C70000700A0F500501F3800900398002D0ADDB2
:104C800042F21F014A460844002303A903906846E4
:104C900000F0FFFE09E0A0F500504A461F3800234F
:104CA00003A90390684600F009FF8DE8070000049F
:104CB000000C03D04FF0FF30410800E01046B8F17F
:104CC000000F03D00022009215461EE0751E05D489
:104CD000FFF722FF303262556D1EF9D5B34601222F
:104CE000084302D000227F1C04E02078302801D144
:104CF00000227F1E002A099784D01DE0112D07DABB
:104D0000FFF70AFF303262556D1C50EA0102F5D1FF
:104D1000084302D00098C8B10EE00021681E05E0EB
:104D2000235C625C63542254401E491C8142F7DBC1
:104D3000AB46A81B401E0990002004F80B000B98FE
:104D4000099AC0F80880C0E9002B7AE711264FF0D5
:104D5000000857E72DE9F04F88460446D21D22F09F
:104D6000070191B0D1E90001CDE90A0103F0C1FAD0
:104D700002460B98C00F01D02D2007E02068810764
:104D800001D52B2002E0202101EAC000032A09906E
:104D900001D0072A05DB03464146204600F0F6FA1B
:104DA0000BE12078800601D5E06900E00620B8F12B
:104DB000650F814606D0B8F1660F18D0B8F1670FBD
:104DC00070D131E00020B9F1110F009001DB112307
:104DD00001E009F101030AAA01A90CA8FFF7E2FE0C
:104DE000DDE90C70002609F10105834647E001204A
:104DF0004B4600904FF000470AAA01A90CA8FFF704
:104E0000D1FEDDE90DB00C995D46002610B909F11F
:104E100001000D18B9EB050003D4C0F1FF3609F10C
:104E20000105A5EB09002BE0B9F1010F01DA4FF004
:104E300001090020B9F1110F0090484601DD11234E
:104E400000E003460AAA01A90CA8FFF7ABFEDDE9C2
:104E50000C704D4600268346207800070AD4AB45E7
:104E600000DA5D4601A8012D04DD411911F8011C8D
:104E7000302907D04F4502DA17F1040F04DA012078
:104E800082460FE06D1EEEE7002F02DCED1B3E4474
:104E900003E0781CA84200DD7D1CB81B00F1010A6C
:104EA0004FF000472078000703D4AA4501DB4FF0FC
:104EB000FF3A0021B7F1004F0DF143088DF8431080
:104EC00024D002202B23002F01DA7F422D230A2138
:104ED000021EA0F1010000DC5FB197FBF1FC97FB23
:104EE000F1F201FB1C7C17460CF1300C08F801CDE7
:104EF000EEE7A8F1010003702188090501D54521DD
:104F000000E06521A0F1010800F8011C09980FA933
:104F1000A1EB0807FF1D00B10120411901EBEA7068
:104F2000A1693844081A401EA0612078C00602D446
:104F30002046FFF7BFFB099828B1D4E9012190472B
:104F4000206A401C20622078C00622D52046FFF748
:104F5000B1FB1EE0002E04DBB34502DD01A8805D3D
:104F600000E03020D4E901219047206A401C2062F3
:104F7000761CAAF101005FEA000A0AD100F002FAE9
:104F8000C0680168405CD4E901219047206A401C58
:104F90002062281EA5F10105DCDC07E0D4E901212F
:104FA00018F8010B9047206A401C2062381EA7F1B8
:104FB0000107F3DC2046FFF793FB032011B041E625
:104FC0002DE9F04F04460D46D21D22F0070089B0AE
:104FD000D0E900974846394603F08BF90246F80FAE
:104FE00001D02D2307E02068810701D52B2302E0A3
:104FF000202101EAC0038DF820300BB1012000E030
:105000000020032A824601D0072A04DB29462046D5
:1050100000F0BCF93FE12078800601D40D2500E0C6
:10502000E569C7F30A560D2D49DA00214FEA175BEF
:1050300008464FF00000002F00F4400007DA00EBB4
:1050400080004FF4400100EBD07001EA6000811550
:10505000012901DD4FF0FF3100224FEA850CBCF140
:10506000180F06D31346ACF118004FF08052C2401F
:1050700003E04FF4801323FA0CF30CF10C0CBCF199
:10508000200F04D3ACF1200C09FA0CF001E007FA70
:105090000CF000294FF0004801DD18B90FE00ED1E7
:1050A00040450CD319EB02095F4121B9404502D1BB
:1050B0009F4329EA0209BBEB175F00D0761C2088CA
:1050C000000502D57B48784402E07A4878441938D4
:1050D00008AA302302F80A30037C0AF10101002EED
:1050E0000AF1020A53546A4602DC4FF0300101E033
:1050F0004FF031014FF001088DF8001002D0A6F2F8
:10510000FF3603E059EA470100D06B4E002D02DC68
:105110002178090704D54FF002082E218DF80110DF
:10512000C44600210BE0C7F303433F01C35C491CA5
:105130006D1E02F80830052908F1010801DA002D7A
:10514000F1DC00210CE000EB1973491C1B786D1E8B
:10515000082902F808304FEA091908F1010801DAB4
:10516000002DF0DC21688B0602D516E0A8F10108BD
:10517000E04505DD02EB080313F8013C302BF5D0C8
:10518000B8F1000F09DD02EB080313F8013C2E2BE8
:1051900003D1090701D4A8F10108002D05DD3E2146
:1051A00002F808106D1E08F10108407C002E02F87C
:1051B000080008F1010804DA2D20764202F8080000
:1051C00002E02B2002F808000A214FF47A70864290
:1051D00008F101080BDB96FBF0F3303302F80830DE
:1051E00096FBF0F308F1010800FB136601E0642E62
:1051F0000CDB642096FBF0F3303302F8083096FBAA
:10520000F0F308F1010800FB136601E00A2E06DB4B
:1052100096FBF1F0303002F8080008F1010896FB27
:10522000F1F001FB1060303002F80800A16908F1CC
:10523000010808EB050202EB0A00081AA0612078B9
:10524000C00602D42046FFF735FA216A08AE01EB0A
:105250000A00206204E0D4E9012116F8010B90470E
:10526000BAF1010AF7D22078C00602D52046FFF72E
:1052700021FA6E4609E016F8010B3E280FD0D4E95A
:1052800001219047206A401C2062B8F10108F2D247
:105290002046FFF725FA09B00320BDE8F08F206A09
:1052A0002844206203E0D4E90121302090476D1E9C
:1052B000EBD3F8E7E137000002FCFFFF10B54369CC
:1052C00013B1AFF3008001E0FFF7D6FA012010BD63
:1052D000128800F1240182840022C2840122EDE7B9
:1052E00011684FF0FF32E9E770B516460C460546E7
:1052F00000F040F8036893F80101012806D0FF2C64
:105300000FD8185D68B101202C7070BDD3F807016B
:105310003246214603F2071303442846BDE8704095
:1053200018474FF0FF3070BD754600F0EBF8AE4601
:1053300005006946534620F00700854618B020B5A1
:10534000FEF7A2FFBDE820404FF000064FF0000737
:105350004FF000084FF0000B21F00701AC46ACE81D
:10536000C009ACE8C009ACE8C009ACE8C0098D468A
:105370007047000010B500F005F8001D10BD00BF1B
:105380007934000000487047D03100202DE9F04109
:105390001F46044603260168072A01F4006004DB67
:1053A00008B116A505E016A503E008B115A500E0B3
:1053B00015A521F010002060A069C01EA0610FB1EA
:1053C000401EA0612046FFF775F94FB1D4E90121D5
:1053D00038469047206A401C2062C01C206206E0CC
:1053E000206AFAE7D4E9012115F8010B9047761EEF
:1053F000F8D22046FFF774F9BDE8F0814E414E0027
:105400006E616E00494E4600696E66002DE9F047F8
:10541000814616468AB0354878440DC88DE80D009F
:1054200032487844801C03AC0DC884E80D0041F676
:105430009B300844372190FBF1F290FBF1F5A5F188
:10544000800501FB12041B3C02D56442012000E0F0
:105450000020DFF898A080460027FA44AAF1BE0A8F
:105460000EE0E0070AD03246684607EB4701012309
:105470000AEB810100F022FB8DE8070064107F1C1D
:10548000002CEED1194F7F44AE3F19E0E80715D04C
:1054900007EB04100DF1180A90E80E008AE80E00E0
:1054A000C068F04201D1981908903246012306A93C
:1054B00003A800F003FB03AB83E807006D10641C36
:1054C000002DE3D14FF0010332466946B8F1000FD9
:1054D00003A802D000F0DDFA01E000F0EFFAC9E91C
:1054E0000001C9F808200AB0BDE8F08720350000A7
:1054F00010B50446AFF300802046BDE81040FEF72B
:1055000092BE000000487047B03100204FF0013CCF
:1055100050F8042B51F8043B9A4221D1A2EB0C0322
:10552000934313EACC1317D150F8042B51F8043BE2
:105530009A4215D1A2EB0C03934313EACC130BD17F
:1055400050F8042B51F8043B9A4209D1A2EB0C030A
:10555000934313EACC13DBD04FF00000704700BF39
:10556000D01A01BAB1FA81F101F0180122FA01F062
:10557000CB40C1F12001DBB2C0B2C01A2CFA01F35A
:10558000D11A914311EAC311E6D17047014918209D
:10559000ABBEFEE72600020070475FEA400C08BF82
:1055A00091F0000F4FEA8C234FEAC12243EA515198
:1055B0004FEA1C5018BF00F5F0404FEA300018BF0A
:1055C00041F000415FEA6C5C00F02980BCF1FF3FD4
:1055D00008BF40F080407047130C06BF12044FF024
:1055E000100C4FF0000C130E04BF12020CF1080C4B
:1055F000130F04BF12010CF1040C930F04BF9200AF
:105600000CF1020CD30F04BF52000CF1010C114637
:105610004FF00002A0F11F00A0EB0C00704711F04A
:10562000004F08BF704731F000413FF4D5AF0B0C7D
:1056300006BF09044FF0100C4FF0000C0B0E04BF16
:1056400009020CF1080C0B0F04BF09010CF1040C4A
:105650008B0F04BF89000CF1020CCB0F04BF490073
:105660000CF1010CCCF12003A0EB0C0022FA03F3A7
:1056700002FA0CF241EA030100F10100704720F048
:105680007F4C80EA030023F07F47ACEB070303F570
:105690007C5300F0004003F1FF032DE980494FEAFD
:1056A000154B09B44FEA144325EA0B4E24EA03488C
:1056B0000FF2042606EB132749083E785FEA320210
:1056C00003FB0667C7F5000707FB06F64FEA5437EA
:1056D0004FEAD64606F1020607FB066CCCF1005CE9
:1056E0004FEA1C472CEA074C07FB06F40CFB06F5B7
:1056F00004EB15464FEA961634BF00204FF00040E9
:105700004FEAD13706FB07FC4FEA1C4C0CFB0BF7AA
:10571000D21B03FB0CF761EB07010CFB0EF7B0EBA0
:10572000074072EB17420CFB08F734BFA2EB0742AD
:10573000B2EB074261EB17414FEA0C444FEA910785
:1057400006FB07FC4FEA1C4C0CFB0BF7B0EBC74009
:1057500072EB573203FB0CF734BFA2EBC742B2EB3C
:10576000C74261EB57310CFB0EF7B0EBC70072EB91
:1057700057720CFB08F734BFA2EBC702B2EBC702AB
:1057800061EB5771039F4FEA816141EA921104EB8B
:10579000CC044FEAD1374FEA826206FB07FC42EAAB
:1057A00090124FEA80604FEA1C4C0CFB0BF7D21BA7
:1057B00003FB0CF761EB07010CFB0EF7B0EB0740A6
:1057C00072EB17420CFB08F734BFA2EB0742B2EBB7
:1057D000074261EB17414FEA8C554FEA910704EB02
:1057E0009C2406FB07FC4FEA1C4C0CFB0BF7B0EBB0
:1057F000C74072EB573203FB0CF734BFA2EBC74232
:10580000B2EBC74261EB57310CFB0EF7B0EBC700B0
:1058100072EB57720CFB08F734BFA2EBC702B2EB76
:10582000C70261EB577115EB4C254FEA816141EAE4
:1058300092114FEA82624FEAD13742EA901206FB98
:1058400007FC44F100044FEA80604FEA1C4C0CFB5B
:105850000BF7D21B03FB0CF761EB07010CFB0EF7F8
:10586000B0EB074072EB17420CFB08F734BFA2EB1A
:105870000742B2EB074261EB174115EB1C154FEAEB
:10588000813141EA92414FEA823242EA90424FEA44
:1058900080304FEA0C7644F1000448EA03434EEAB4
:1058A0000B484FF0000EB2EB080C71EB030724BF5E
:1058B000624639464EEB0E0E4FF0000B0018524177
:1058C00049414BEB0B0BB2EB080C71EB03077BF17F
:1058D000000B24BF624639464EEB0E0E4FF0000B14
:1058E0000018524149414BEB0B0BB2EB080C71EB2A
:1058F00003077BF1000B24BF624639464EEB0E0EC8
:1059000051EA020718BF46F0010616EB0E7655F174
:10591000000254F1000103D5BDE88901BDE800880B
:10592000BDE88901BDE80048B619524141EB0101CB
:10593000A3F10103704780807F7E7D7C7B7A79783C
:10594000777676757473727171706F6E6E6D6C6C44
:105950006B6A6A69686867666665646463636261E6
:105960006160605F5F5E5E5D5D5C5C5B5B5A5A5967
:1059700059585857575656555555545453535252D3
:105980005251515050504F4F4F4E4E4D4D4D4C4C2B
:105990004C4B4B4B4A4A4A49494948484847474774
:1059A00047464646454545444444444343434342B1
:1059B000424242414141002B9C4630D477002BD0DB
:1059C0001CB54FEA370703B44FF010004FF0100139
:1059D000BAF1000F06D0BCF1000FDCBF40F00800A8
:1059E00040F008014FF000000FBCBDE810400BF183
:1059F000010BBBF1010F08BF5FEA170722BF12F1CD
:105A0000010211F101014FF0004143F1000300F0E8
:105A1000004043EA00007047F9D35708D0E746EA50
:105A2000064613F1400F4FEA16461FDD13F1200F13
:105A3000DFBF16430A46002120335B42BED0C3F1CC
:105A4000200746EA064602FA07F74FEA164646EAF4
:105A50000706C3F1200722FA03F201FA07F721FA39
:105A600003F14FF0000342EA0702A7E746EA020605
:105A700046EA06464FEA164646EA0106BCBF46EA33
:105A80000646360C4FF000034FF000024FF00001C5
:105A900094E72DE9804C9A46934670B491E838001B
:105AA00007C831EA400C48BF34EA430C03D5FFF77E
:105AB000E6FDFFF780FFF0BCBDE8008C2DE9804CCF
:105AC0009A46934670B491E8380007C810F0804FAA
:105AD00008BF13F0804F03D100F005F8FFF76BFF0C
:105AE000F0BCBDE8008C20F07F4780EA030023F083
:105AF0007F4C07EB0C03A3F57C5300F00040A3F1AF
:105B0000FE0392F0000F00F0B38095F0000F00F05C
:105B100077802DE901494FEA11404FEA144621EA06
:105B2000004800FB06FC24EA064708FB06F607FBD4
:105B300008F800FB07F718EB06484CEB164C4FEA49
:105B4000124B18EB07484FEA15464CEB174022EA78
:105B50000B4E0BFB06FC25EA06470EFB06F607FB81
:105B60000EFE0BFB07F71EEB064E4CEB164C4FF0F0
:105B700000061EEB074E4CEB174B18EB0B0840F1E1
:105B8000000018EB0E0B58EB000840F100008F1AD4
:105B90004FF000013CBFC943661B14BFB5EB040CBA
:105BA00000213CBFC943F61B4FEA17444EEA8E0E54
:105BB00027EA04454FEA1C4704FB07622CEA074C1E
:105BC00005FB07F70CFB05F604FB0CFC16EB074680
:105BD00042EB174216EB0C4642EB1C421BEB06064F
:105BE00058EB0202414146EA9E0601D5BDE8018913
:105BF000B619524141EB0101A3F10103BDE801894E
:105C00004FEA14454FEA114724EA054621EA074CBA
:105C100005FB07F406FB07F70CFB06F105FB0CFC84
:105C200011EB074144EB17444FEA124711EB0C41CB
:105C300044EB1C4422EA074C05FB07F206FB07F77E
:105C40000CFB06F605FB0CFC16EB074642EB174275
:105C500016EB0C4642EB1C456A1854F1000148BF94
:105C60007047B619524141EB0101A3F1010370479E
:105C700095F0000F37D04FEA11424FEA144721EA5E
:105C8000024624EA074C02FB07F106FB07F70CFB70
:105C900006F402FB0CFC14EB074441EB17414FEAFE
:105CA000154714EB0C4441EB1C4125EA074C02FB61
:105CB00007F506FB07F70CFB06F602FB0CFC16EBE0
:105CC000074645EB174516EB0C4645EB1C421219EF
:105CD00051F1000148BF7047B619524141EB010133
:105CE000A3F1010370474FEA14454FEA114724EA34
:105CF000054621EA074C05FB07F106FB07F70CFBFD
:105D000006F24FF0000605FB0CFC12EB074241EBDC
:105D1000174112EB0C4251EB1C4148BF70479218DF
:105D200041EB0101A3F101037047FEE7014800F0D8
:105D30008FB800002431002030B590F84050012485
:105D4000AC40C56B6C60046863604368102B0368EB
:105D500003D099600068C26030BD9A600068C1607D
:105D600030BD70474FF4806000F08CB972B6FEE72A
:105D700010B590F821100022022905D0042181637A
:105D800080F82020012010BD01680B6823F00E036D
:105D90000B6001680B6823F001030B6090F8403042
:105DA000C46B012101FA03F3636080F8211080F8CD
:105DB0002020104610BD000010B590F821100024DE
:105DC000022903D00421816301243DE001680A68AF
:105DD00022F00E020A6001680A6822F001020A60DD
:105DE0001A4A0168914201D1012121E0174A143277
:105DF000914201D110211BE0144A2832914201D175
:105E0000891515E0114A3C32914201D189140FE005
:105E10000E4A5032914202D14FF4803108E00B4AD1
:105E20006432914202D14FF4801101E04FF0807151
:105E3000064A083A5160012180F82110002180F8BB
:105E40002010416B01B18847204610BD0800024078
:105E50002DE9F05FC16B0C6801680B68D0F840C099
:105E6000042202FA0CF2494DDFF824A1494E4A4FB0
:105E7000DFF828B1DFF828E122422CD05A072AD5D2
:105E80000A68920603D40A6822F004020A600168D4
:105E9000A94201D1042219E0514501D1402215E067
:105EA000B14202D14FF4806210E0B94202D14FF406
:105EB00080420BE0594502D14FF4802206E0714543
:105EC00002D14FF4800201E04FF080622F4908397F
:105ED0004A60C16A3BE04FF0020808FA0CF818EA81
:105EE000040F4FF000094FF0010235D05FEA8378CC
:105EF00032D50B689B0605D40B6823F00A030B60B0
:105F000080F821200168A94201D1022219E05145FF
:105F100001D1202215E0B14202D14FF4007210E00D
:105F2000B94202D14FF400520BE0594502D14FF46F
:105F3000003206E0714502D14FF4001201E04FF04B
:105F40000072124908394A6080F82090816A00295D
:105F50001AD0BDE8F05F0847082505FA0CF5254280
:105F600012D01B0710D50B6823F00E030B6090F8BE
:105F70004010C36B02FA01F15960826380F821205E
:105F800080F82090016BE2E7BDE8F09F0800024036
:105F90001C00024030000240440002405800024011
:105FA0006C00024030B528B308C8134914221944C4
:105FB000B1FBF2F18900C16310498163022141778D
:105FC0001A6843F6F0718A43D0E900142143D0E9FE
:105FD00002452C43214304692143446921438469D8
:105FE0002143114319600021416301224277017767
:105FF000084630BD012030BDF8FFFDBF0000024063
:1060000070B5044690F82000002501280CD001202E
:1060100084F8200094F821600020012E06D084F836
:1060200020000225284670BD022070BD022684F89B
:106030002160A0632068066826F0010606602046FD
:10604000FFF77AFEE06A00282068016802D041F07C
:106050000E0106E021F0040101602068016841F0B2
:106060000A0101602068016841F001010160D9E77F
:10607000B0F5806F03D10248C06801F0E5BB7047FE
:1060800024000020044910B50A68024202D00860CA
:10609000FFF7EEFF10BD0000140401402DE9F84F9A
:1060A000DFF8B8910024A9F1040B23460F2709F16A
:1060B000040AABF1040EC9E00125A5402A40AA421A
:1060C0007DD1674ED1F804C0ACEB0608B44532D0A0
:1060D00014DCBCF1030F3AD009DCBCF1000F2AD06C
:1060E000BCF1010F1CD0BCF1020F31D11DE0BCF19D
:1060F000110F17D0BCF1120F2AD119E0B8F5881F83
:1061000019D006DCB8F5803F15D0B8F5801F1FD137
:1061100011E0B8F5001F0ED0B8F5041F18D10AE041
:10612000CB6815E0CB681B1D12E0CB6808330FE08D
:10613000CB680C330CE08B682BB1012B4FF00803BC
:1061400003D0456104E0042302E0056100E0002380
:10615000FF2A01D8064601E000F104064FEA840553
:1061600001D9A5F12005D6F8008007FA05FC28EA38
:106170000C0803FA05F548EA0508C6F800804D68E2
:10618000ED0062D5374DAE6946F00106AE61AD69EE
:1061900024F0030605F001050095334D06EB050CD0
:1061A000DCF80850A607360F07FA06F825EA0805B6
:1061B000DFF8B880404503D14FF0000817E044E015
:1061C000DFF8AC80404502D14FF001080FE0DFF866
:1061D000A480404502D14FF0020808E0DFF8988023
:1061E000404502D14FF0030801E04FF0040808FADF
:1061F00006F848EA0508CCF808804D68D9F8006030
:10620000ED024D4601D5164300E096432E604D68E1
:10621000DAF80060AD02554601D5164300E096431A
:106220002E604D68DBF80060AD035D4601D5164376
:1062300000E096432E604D68DEF80060ED03754681
:1062400001D5164300E096432E60641C0D682A4673
:10625000E5407FF431AFBDE8F88F0000080401404D
:106260000000111000100240000001400008014031
:10627000000C0140001001400014014080680840FB
:1062800000D001207047C26821EA02030A4043EAB5
:106290000241016170470AB1016170470904FBE7DF
:1062A00001488068704700003800002070B5040085
:1062B00013D021684CF6CC400860216845F2555057
:1062C0000860D4E9000141602168A0688860FFF798
:1062D000E7FF054641F23C360DE0012070BD00BFEE
:1062E000FFF7DEFF401BB04205D92068C068800779
:1062F00001D0032070BD2068C0688007F0D12168FC
:106300004AF6AA200860002070BD00684AF6AA215B
:106310000160002070470000024881680278114443
:106320008160704738000020074810B5016841F0CF
:1063300010010160032000F09BF80F2000F006F828
:1063400000F04AF8002010BD0020024030B505469C
:106350001C4887B0816941F400618161806906A9A8
:1063600000F40060009001A800F02AF900F058F94C
:106370001549164AB0FBF1F11548491E026041600B
:1063800040F2E7320021C0E903218160816100F021
:1063900043FB040012D10E4800F07EFB04000DD137
:1063A000192000F037F8102D07D2002229461920B5
:1063B00000F03EF80748056000E0012407B02046E1
:1063C00030BD00000010024040420F00002C014090
:1063D000683100203C0000200C4808B5816941F07C
:1063E00001018161816901F001010091C16941F000
:1063F0008051C161C06900F080500090044841683C
:1064000021F0E06141F00071416008BD00100240E0
:1064100000000140002809DB00F01F02012191402B
:106420004009800000F1E020C0F800117047000032
:10643000F0B40E4B1B680C46C3F30223C3F10705EF
:10644000042D00D90425191D072901D2002300E0DD
:10645000DB1E012606FA05F1491E214099409E40A7
:10646000761E16403143F0BC01F067BF0CED00E032
:10647000064900F0070208684FF6FF03184040EA9B
:106480000220034A10430860704700000CED00E052
:106490000000FA052DE9F0470F46050061D0434E94
:1064A000306800F00700B84209D2306820F00700D9
:1064B00038433060306800F00700B84251D1286896
:1064C0003B4C810712D5400703D5606840F4E0607B
:1064D00060602878000703D5606840F46050606011
:1064E0006068A96820F0F000084360602878C00761
:1064F00028D06868012810D02168022810D08907A8
:1065000000292EDA616821F0030101436160FFF781
:10651000C7FE804641F288390DE021688903EFE724
:106520008901EDE7FFF7BCFEA0EB0801494502D960
:106530000320BDE8F0876068696800F00C00B0EBEC
:10654000810FEFD1306800F00700B8420BD93068F6
:1065500020F0070038433060306800F00700B84290
:1065600001D00120E5E72878400705D56068E96893
:1065700020F4E060084360602878000706D5606872
:10658000296920F4605040EAC100606000F058F8CA
:106590006168084AC1F30311515CC84006490860AC
:1065A00006480068FFF7D2FE0020C2E70020024044
:1065B000001002403E880008440000203C000020FB
:1065C0000F2202600C4A536803F0030343605368D0
:1065D00003F0F0038360536803F4E063C360526820
:1065E0004FF4E06303EAD20202610448006800F05D
:1065F00007000860704700000010024000200240C1
:106600000448054900684968044AC1F30221515C05
:10661000C840704744000020001002404E88000827
:106620000448054900684968044AC1F3C221515C25
:10663000C840704744000020001002404E88000807
:106640000E4A51680E4801F00C03042B11D0082BA0
:106650000FD10C48C1F38343C903C05C0AD551680C
:10666000084AC1F34041921E515C054A5043B0FBB9
:10667000F1F07047044948437047000000100240A1
:1066800000127A002E88000800093D002DE9F84F1D
:10669000040070D02078C04DC00749D06868C0F3AE
:1066A0008100012807D06868C0F38100022809D161
:1066B0006868C00306D52868800339D5606800285B
:1066C000E7D035E06068B0F5803F0BD010B1B0F591
:1066D000A02F11D0286820F480302860286820F48A
:1066E000802002E0286840F480302860606890B123
:1066F000FFF7D6FD06460AE0286840F480202860AF
:10670000F0E700BFFFF7CCFD801B642873D8286832
:106710008003F7D50CE0FFF7C3FD064605E000BF98
:10672000FFF7BEFD801B6428F0D828688003F7D4EB
:1067300020789A4E80074FF001094FF0000839D5B4
:10674000686810F00C0F07D06868C0F38100022859
:1067500009D16868C00306D42868800714D5206969
:10676000012808D110E02069B0B1C6F80090FFF709
:1067700097FD074605E00AE1FFF792FDC01B0228DE
:10678000C4D828688007F7D52868616920F0F80028
:1067900040EAC10028600DE0C6F80080FFF780FDE8
:1067A000074604E0FFF77CFDC01B022823D82868B9
:1067B0008007F7D4207800072CD57948A169D9B192
:1067C000C0F80090FFF76CFD074604E0FFF768FD96
:1067D000C01B02280FD8686A8007F7D571484FF4AC
:1067E000FA510068B0FBF1F0009000BF0098411E24
:1067F0000091FAD20EE080E0C0F80080FFF750FD73
:10680000074604E0FFF74CFDC01B022875D8686AF4
:106810008007F7D42078400760D5E8690027C000DA
:1068200008D4E86940F08050E861E869012700F089
:10683000805000905C480168C90513D40168834604
:1068400041F480710160FFF72BFD824606E000BF36
:10685000FFF726FDA0EB0A0064284ED8DBF8000005
:10686000C005F5D5E06801280AD008B1052813D085
:10687000286A20F001002862286A20F0040002E063
:10688000286A40F001002862E06841F2883B98B134
:10689000FFF706FD82460BE0286A40F004002862FC
:1068A000EEE700BFFFF7FCFCA0EB0A0159455AD800
:1068B000286A8007F6D50CE0FFF7F2FC824605E077
:1068C000FFF7EEFCA0EB0A0159454CD8286A800777
:1068D000F6D41FB1E86920F08050E861E06988B320
:1068E0006968C1F38101022944D00228C6F860809A
:1068F00004D0FFF7D5FC044638E034E0FFF7D0FCC5
:10690000074604E0FFF7CCFCC01B02282BD8286800
:106910008001F7D4206AB0F5803F05D16868A1688E
:1069200020F4003008436860D4E90801084369682E
:1069300021F4741108436860C6F86090FFF7B0FC5A
:10694000044606E025E000BFFFF7AAFC001B022872
:1069500009D828688001F7D51BE000BFFFF7A0FC2D
:10696000001B022802D90320BDE8F88F28688001A7
:10697000F4D40EE00128F7D06868226A00F4803170
:10698000914204D1616A00F47010884201D0012064
:10699000EAE70020E8E70000001002400000424261
:1069A000800442424400002000700040704770475D
:1069B00070B590F83C20012A26D0012480F83C4094
:1069C000022280F83D2003685A689D6822F0700614
:1069D0000A6832435A600D4B02689A4208D0B2F1FD
:1069E000804F05D00A4B9A4202D00A4B9A4204D1FA
:1069F000496825F080031943916080F83D400021EB
:106A000080F83C10084670BD022070BD002C01408B
:106A1000000400400008004010B5040003D094F8C2
:106A20003D0010B107E0012010BD002084F83C00BB
:106A3000204600F01FF8022084F83D00211D206848
:106A400001F06AF8012084F8460084F83E0084F8DA
:106A50003F0084F8400084F8410084F8420084F844
:106A6000430084F8440084F8450084F83D00002089
:106A700010BD000008B50068B0F1804F08D105488E
:106A8000C16941F00101C161C06900F001000090DD
:106A900008BD00000010024090F83D10012901D00F
:106AA00001207047022180F83D100168CA6842F059
:106AB0000102CA6000680B49884208D0B0F1804FDB
:106AC00005D00949884202D00849884204D181682A
:106AD00001F00701062903D0016841F001010160BE
:106AE00000207047002C01400004004000080040D6
:106AF00070B5044690F83C000025012817D0012607
:106B000084F83C60022084F83D002068826822F00E
:106B1000770222F47F4282600868502838D00DDC6A
:106B200020284FD005DC90B3102811D14AE0022074
:106B300070BD302846D040280AD13BE060282FD0D5
:106B400070280DD0B0F5805F03D0B0F5005F12D093
:106B5000012584F83D60002084F83C00284670BD83
:106B6000CB68D1E90121206801F01FF82068816815
:106B700041F0770109E0CB68D1E90121206801F0FB
:106B800014F82068816841F480418160E1E719E0F0
:106B9000CA684968206801F0BDF85021206806E005
:106BA000CA684968206801F0C6F86021206801F0D1
:106BB00006F8CEE7CA684968206801F0ABF84021C2
:106BC0002068F4E7226801461046F0E770472DE997
:106BD000F04104460068C66805694FF00007A90740
:106BE00013D5B10711D5F91E016101202077206866
:106BF00080698007204602D0FFF7E8FF04E000F03C
:106C0000A3F8204600F035F92777680716D57007F6
:106C100014D521686FF004000861022020772068F5
:106C2000806910F4407F204602D0FFF7CFFF04E0D8
:106C300000F08AF8204600F01CF92777280715D5C0
:106C4000300713D521686FF0080008610420207711
:106C50002068C0698007204602D0FFF7B7FF04E034
:106C600000F072F8204600F004F92777E80616D500
:106C7000F00614D521686FF0100008610820207715
:106C80002068C06910F4407F204602D0FFF79EFFC5
:106C900004E000F059F8204600F0EBF82777E80709
:106CA00008D0F00706D021686FF001000861204687
:106CB00000F02EF9280608D5300606D521686FF0B9
:106CC000800008612046FFF771FE680608D570064F
:106CD00006D521686FF040000861204600F022F9D7
:106CE000A8060AD5B00608D521686FF02000086113
:106CF0002046BDE8F041FFF75ABEBDE8F081000034
:106D000000B585B0002100910191029103910068C6
:106D1000B0F1804F11D10A48816941F004018161CD
:106D20008069694600F00400049001200090022070
:106D3000019003900348FFF7B1F905B000BD0000D2
:106D40000010024000080140704770B5044690F8FA
:106D50003C0000260D4601280FD0012084F83C009D
:106D60006AB1042A1DD0082A2FD00C2A3FD0012650
:106D7000002084F83C00304670BD022070BD2068C1
:106D800000F026FF2068816941F0080181612068D8
:106D9000816921F004018161206881692A691143B8
:106DA00011E0206800F03CFF2068816941F4006137
:106DB00081612068816921F4806181612068816935
:106DC0002A6941EA02218161D2E7206800F054FF7C
:106DD0002068C16941F00801C1612068C16921F0E2
:106DE0000401C1612068C1692A69114311E020686A
:106DF00000F06EFF2068C16941F40061C161206844
:106E0000C16921F48061C1612068C1692A6941EAD0
:106E10000221C161ACE710B5040003D094F83D0035
:106E200010B107E0012010BD002084F83C0020468E
:106E300000F01EF8022084F83D00211D206800F0BB
:106E40006BFE012084F8460084F83E0084F83F0081
:106E500084F8400084F8410084F8420084F843003C
:106E600084F8440084F8450084F83D00002010BDFB
:106E70007047704710B50446022249B104290ED06C
:106E8000082913D094F84100012816D0012010BD24
:106E900094F83E000128F9D184F83E200FE094F8E0
:106EA0003F000128F2D184F83F2008E094F8400028
:106EB0000128EBD184F8402001E084F84120012230
:106EC000206800F065FE0F492068884203D1426CBB
:106ED00042F4004242642068884208D0B0F1804FFA
:106EE00005D00949884202D00849884204D1816806
:106EF00001F00701062903D0016841F0010101609A
:106F0000002010BD002C014000040040000800409B
:106F100000680349884201D1FFF7FEB970470000BD
:106F2000002C01407047704770470000F8B50168B9
:106F300004460868CA684B6910F00F0F4FF000054F
:106F400059D003F0010602F49077374365D0C107AA
:106F500005D0D10503D5616C41F0010161644107A1
:106F600005D5D90703D0616C41F002016164810746
:106F700005D5D90703D0616C41F0040161640107B4
:106F800007D502F02001314303D0616C41F00801C4
:106F90006164616C00293AD0800604D5900602D560
:106FA000204601F0A7F820684069616CC0F38010AA
:106FB000090700D460B3204601F067F820684069F3
:106FC000400621D52068143050E8001F21F0400110
:106FD00040E80012002AF5D1E06BA8B16D49416389
:106FE000E06BFEF7E9FE002811D0E06B416B01B0C9
:106FF000BDE8F040084783060FD593060DD520461F
:10700000BDE8F84001F076B82046FFF78DFFF8BDE7
:107010002046FFF789FF6564F8BD266B2023012E0B
:107020007CD1C6067AD5D60678D50868486800901F
:1070300048694FF00206400640D5E16B0868406899
:107040000004000CE8D0A28D8242E5D9E085886971
:1070500020282DD020680C3050E8001F21F48071CA
:1070600040E80012002AF5D12068143050E8001FD3
:1070700021F0010140E80012002AF5D12068143007
:1070800050E8001F21F0400140E80012002AF5D12D
:1070900084F84230256320680C3050E8001F21F04E
:1070A000100140E80012002AF5D1E06BFEF760FE07
:1070B0006663A08DE18D401A81B22AE0A08DE18D3A
:1070C000401A81B2E08D0028A6D00029A4D0226801
:1070D0000C3252E8000F20F4907042E80007002FB5
:1070E000F5D12068143050E8002F22F0010240E86A
:1070F0000027002FF5D184F84230256320680C303A
:1071000050E8002F22F0100240E80023002BF5D1B8
:1071100066632046FFF707FFF8BDFFE705062BD59E
:10712000150629D594F841002128F5D1A068B0F5BD
:10713000805F01D12069B0B1206A411C21622168C1
:1071400000784860E08C401E0004000CE084E3D12D
:107150002068C16821F08001C1602068C16841F0E9
:107160004001C160D8E7206A0088C0F30800486089
:10717000206A801C2062E5E74006CDD55006CBD5BD
:10718000CA68204622F04002CA6084F8413000F00C
:107190001BF9C1E7E57F000870B5040004D094F83E
:1071A0004100002510B106E0012070BD84F8405078
:1071B000204600F023F8242084F841002068C168AC
:1071C00021F40051C160204600F0F6FF20680169FB
:1071D00021F4904101612068416921F02A01416157
:1071E0002068C16841F40051C1606564202084F8C2
:1071F000410084F842006563002070BD70B586B020
:1072000000250646009501950295039500682249E0
:1072100088423FD12149C86940F40030C861C8693B
:1072200000F400300490886940F0040088618869A7
:107230001B4C00F0040004900420009002200190F8
:107240000320039069462046FEF728FF0820CDE979
:107250000005694620460295FEF720FF124C1148B2
:1072600020601020C4E901058020C4E903056561A0
:10727000A5612046E561FEF795FE08B1FEF776FDB3
:10728000B4630022114626206662FFF7D1F826205B
:10729000FFF7C0F806B070BD004400400010024087
:1072A00000080140800002402431002070472DE991
:1072B000F843044690F84100984616460D462028AB
:1072C00002D00220BDE8F88385B17EB10020606461
:1072D000212084F84100FEF7E3FFA6848146E6847E
:1072E000A0682027B0F5805F02D003E00120E9E725
:1072F000206910B12E4600250EE000260CE080210A
:10730000204600F0B5FFA8B9C6B116F8010B2168F8
:107310004860E08C401EE084E08C4B464FF0000259
:10732000CDF800800028EAD14FF04001204600F05F
:107330009FFF40B184F841700320C3E735F8020B8A
:10734000C0F30800E3E784F841700020BAE70000CA
:1073500070B5044690F84100202801D0022070BD8D
:1073600049B342B32162A284E284002060642123F5
:1073700084F84130A56B114BAB62A56B104BEB62EF
:10738000A56B104B2B63A36B5863256813462A1D0E
:10739000A06BFEF735FE21686FF0400008602068A2
:1073A000143050E8001F41F0800140E80012002A2C
:1073B000F5D1002070BD012070BD00003F800008A5
:1073C00081800008F57F000800680449884203D1E5
:1073D0000348806800F038BA70470000004400405D
:1073E000240000207047FEE7094C0026A66072B614
:1073F00025695DB1286A206100B1466262B668689D
:1074000001F0B2F8284601F0AFF8EFE762B6EDE719
:10741000000000200FB400B50D48A1B00DA2036814
:1074200080216846FCF772FF00280DDB80280BD214
:10743000C0F1800123AB6844229AFCF737FF07486C
:107440006946406800F098F921B05DF814FB00002F
:107450000400002025756D7320000000240000202A
:10746000094808B5416941F00101416140690022C4
:1074700000F00100009011461120FEF7D9FFBDE891
:1074800008401120FEF7C6BF00100240F0B585B0DD
:1074900000242C480094019402940394816941F0E3
:1074A00010018161816901F010010491816941F04D
:1074B00020018161816901F020010491816941F01D
:1074C00004018161816901F004010491816941F045
:1074D0000801816180691C4E00F008004FF40055DE
:1074E0000490002229463046FEF7D5FE174F0022B1
:1074F00020213846FEF7CFFE00950125CDE9015445
:107500000224694630460394FEF7C8FD60020090ED
:107510000F48CDE9010469460E48FEF7BFFD202063
:107520000090CDE90154694638460394FEF7B6FD54
:10753000002211462820FEF77BFF2820FEF76AFF75
:1075400005B0F0BD0010024000100140000C0140E9
:107550000000111000080140094810B507490160FA
:107560000021416040F6B8318160FEF79FFE00289F
:1075700003D0BDE81040FEF7F9BB10BD003000405D
:107580008830002010B58EB0002407940894099428
:107590000A940B941C2168460C94FDF761F81E4870
:1075A0004FF08041016040F2CF21C0E90114632116
:1075B000C0E903148461FFF72FFA08B1FEF7D6FB88
:1075C0004FF48050079007A91348FFF791FA08B1CC
:1075D000FEF7CCFB1048FFF71EFC08B1FEF7C6FB18
:1075E0000B940BA90C480C94FFF7E2F908B1FEF7D5
:1075F000BDFB6020CDE900040294002269460648E4
:107600000494FFF7A2FB08B1FEF7B0FB0248FFF7B6
:1076100077FB0EB010BD0000943000200C4810B570
:107620000A4901604FF4E1314160002181600C2280
:10763000C160C0E904128161C161FFF7ADFD00289E
:1076400003D0BDE81040FEF791BB10BD00440040E0
:10765000DC300020FEE7FEE7084CA0B0A06800F098
:1076600009F96946606800F02DF86846FCF794FF58
:1076700082B269460248FFF76BFEEFE72400002064
:10768000DC30002070B50E46050015D0A6B12020D4
:1076900000F0A4FF041E0ED005FB06F000F09EFFD4
:1076A000206058B100206660C4E90250206160612A
:1076B000E061A061204670BD002070BD204600F052
:1076C00053FFF9E72DE9F0410E46040003D016B14F
:1076D00072B600251FE00020BDE8F08124488269D1
:1076E000022000231074A069014601E00346006AED
:1076F00020B1C768D2F80CC06745F7D27BB3C2E9A6
:1077000008031A6200B142621A48016841F08051D0
:10771000016062B672B660690028DFD0D4E9000269
:10772000E16801FB02013046FCF755FFD4E9021085
:10773000401CB0FBF1F201FB1200E0606069401EEA
:107740006061E06940B1016AE16101B14D620562C9
:107750004562057400F09AFF62B60120BCE7FFE7BE
:10776000C2E90815A06900B14262A261CCE700003D
:107770000000002004ED00E02DE9F041040003D0FA
:1077800011B172B600251FE00020BDE8F081244849
:107790008269022000231074E069064601E0034676
:1077A000006A20B1C768D2F80CC06745F7D27BB336
:1077B000C2E908031A6200B142621A48026842F044
:1077C0008052026062B672B66269A0688242DED2FE
:1077D000D4E90032206900FB0230FCF7FCFE20698E
:1077E000A168401CB0FBF1F201FB1200206160694E
:1077F000401C6061A06940B1016AA16101B14D62A4
:1078000005624562057400F041FF62B60120BCE7E5
:10781000FFE7C2E90865E06900B14262E261CCE7D6
:107820000000002004ED00E0704710B50446082079
:1078300000F0D4FE002806D00CB1012100E00021A8
:1078400001700021416010BD00B5010010D072B67A
:10785000486850B1026A4A60002102B15162016277
:107860004162017400F012FF01E00120087062B66D
:1078700000BD0000F0B5002821D072B601780024C8
:10788000012907D012498A69022100231174416835
:107890000D4603E0047011E00B46096A19B1CE6889
:1078A000D768BE42F8D25BB1C2E908131A6201B1CF
:1078B0004A620848016841F08051016062B6F0BD3B
:1078C000C2E90854416801B14A624260F1E7000030
:1078D0000000002004ED00E072B60F216FF00100FF
:1078E00000F01BFD4FF0FF360F21304600F015FD74
:1078F000002080F309881D4D04466860A860024698
:1079000001461BA31C4800F0A3FA002218A311464D
:10791000194800F09DFA30B318A73846FCF73CFE32
:1079200082B2334639461848FFF7C1FC012028705F
:1079300016484FF47A710068B0FBF1F0401EB0F1C8
:10794000807F09D24FF0E02568610F21304600F0BA
:10795000E4FCAC61072028610D48016841F08051CA
:10796000016062B6FEE772B6FEE70000000000208C
:107970004F535F49646C6500E973000874696D6575
:107980003D300D0A00000000DC30002044000020E3
:1079900004ED00E070B590B0FEF7BEFC2D4C2078F1
:1079A000002843D06068401C6060A068401CA06054
:1079B0002948FEF7AAFCA06842F2283188422AD959
:1079C000A2690AB1143200E024A226A16846FCF79D
:1079D00087FC00226B462D4905E00568ED432D0626
:1079E000FBD44460521C08689C5C002CF5D10168F3
:1079F000C9434906FBD4012080F31388BFF34F8F9E
:107A000023480168234A01F4E06111430160BFF398
:107A10004F8F00BFFDE71E4DE069083D10B172B603
:107A2000002610E0286840F08050286010B070BD3B
:107A3000016AE16101B14E6206624662067400F0BD
:107A400025FEE06918B1816862689142F0D962B69A
:107A5000E8E7000000000020883000204E554C4C24
:107A6000000000000D0A53575F5744545F54494DBE
:107A7000454F5554212072756E6E696E6720746192
:107A8000736B3A2025730D0A00000000DC300020E3
:107A90000CED00E00400FA0530B58FB028216846EF
:107AA000FCF7DEFD14210AA8FCF7DAFD092001210C
:107AB00000904FF48030002404910691CDE9010438
:107AC0000225CDE907504FF4E01009906846FEF713
:107AD000DDFD08B172B6FEE70F20CDE90A054FF4CF
:107AE0008060CDE90C4002210AA80E94FEF7D2FC7A
:107AF000002801D072B6FEE70FB030BD0249014840
:107B0000086070470040000808ED00E00148FFF7FA
:107B10005EB8000068310020F0B50268194B1A4CBD
:107B20001A4D4FF08047984205D0B84203D0A0428A
:107B300001D0A84203D122F070064A68324398422D
:107B400005D0B84203D0A04201D0A84203D122F40C
:107B50004074CA6822434C6922F0800222430260CA
:107B60008A68C2620A688262984201D10969016327
:107B7000012141610169C90703D0016921F00101B7
:107B80000161F0BD002C01400004004000080040ED
:107B900010B501F01F030121046A99408C4304626F
:107BA000016A9A401143016210BD10B5846842EA2F
:107BB000032224F47F440A432243826010BD82687A
:107BC00022F070020A4342F0070181607047000012
:107BD00030B5036A026A22F00102026242688469D7
:107BE00024F073050C682C4323F002058B682B43AB
:107BF0000A4DA8420BD123F00805CB6822F440724D
:107C00002B434D6923F0040315438A692A434260DC
:107C1000846149684163036230BD0000002C01406B
:107C200030B5026A036A23F0100303624368846973
:107C30000D6824F4E64444EA05248D6822F020020D
:107C400042EA05120B4DA8420ED1CD6822F0800207
:107C500042EA05124D6923F4406343EA85038D69C6
:107C600022F0400243EA85034360846149688163EE
:107C7000026230BD002C014030B5036A026A22F472
:107C8000807202624268C46923F4007324F07305B1
:107C90000C682C438D6843EA05230C4DA8420ED195
:107CA000CD6823F4006343EA05234D6922F4405272
:107CB00042EA05128D6923F4806342EA05124260AC
:107CC000C4614968C163036230BD0000002C0140FB
:107CD00030B5046A026A22F4805202624268C369C3
:107CE0000D6823F4E64343EA05238D6824F4005429
:107CF00044EA0534064DA84204D14D6922F480427D
:107D000042EA85124260C36149680164046230BD81
:107D1000002C014010B5036A046A24F001040462D7
:107D2000846924F0F00444EA021423F00A020A43AE
:107D30008461026210BD10B5036A046A24F0100465
:107D40000462846923F0A00324F4704444EA0232FC
:107D500043EA01118261016210BD00000024054662
:107D60004FF4FA56641C21460EA0FFF753FB022C79
:107D700002D0032C08D010E013A0FFF74BFB2846DD
:107D800000F0D0F8002508E013A3032200211548D5
:107D900000F05EF814A0FFF73DFB304600F0E2FC77
:107DA000E0E700005461736B312069732072756ED7
:107DB0006E696E672C206C6F6F7020636F756E74C8
:107DC0003A2025640D0A000064656C6574652074B2
:107DD00061736B330D0A00005461736B335F564956
:107DE00050000000257E0008637265617465207490
:107DF00061736B330D0A0000074D4FF400544FF4CC
:107E0000FA7621462846FEF73EFA04A0FFF702FB69
:107E1000304600F0A7FCF4E70010014020320D0AC4
:107E200000000000064C40F6543506A02169491CAC
:107E30002161FFF7EFFA284600F094FCF5E7000017
:107E40002400002020335F5649502C25640D0A0081
:107E50002DE9F0411D4617468846060001D0102F37
:107E600002D30020BDE8F081282000F0B7FB041EFB
:107E7000F8D04FF4806000F0B1FB90B300F5806162
:107E800002C4002285C4012004F810292168091FBA
:107E9000216001282AD002282DD003282ED00828BE
:107EA00031D0401C0A601028F0DD00202318295C26
:107EB0001975295C11B1401C0928F7DB6277226231
:107EC0002046626200F0E2FB11A52846FCF764FB45
:107ED00082B24FF0FF3329461148FFF7E8F92046F8
:107EE000C0E7FFE7204600F03FFBBAE74FF08070A5
:107EF00008600220CAE703200E60C7E76FF00200A7
:107F000008600420C2E70920C1F80080BEE7000035
:107F10006372656174657461736B0D0A0000000023
:107F2000DC30002010B5040072B613D000F0DEFB88
:107F300004200949207400220869C4E9080200B13C
:107F400044620C618869844204D10448016841F0AC
:107F50008051016062B610BD0000002004ED00E019
:107F60002DE9F04172B6DFF8748001274046D8F859
:107F70000C108069002571B128B1017C012902D162
:107F8000057400F083FBD8F80C00C8F818000774DB
:107F9000C8F80C5012E0124E0F2400BF56F82410FF
:107FA00031B1611C0AD078B1017C012903D00BE00A
:107FB000641EF3D502E0C168A14202D962B6BDE8F1
:107FC000F081057400F062FB56F824004446C8F8BE
:107FD000180000F08BFBA0690774EFE70000002099
:107FE0004800002010B5406A0021C185C184FEF719
:107FF0009BFF10BD70B5446A2068406994F8411039
:10800000C0F3C0100025212904D118B1E584204611
:1080100000F062F82068406994F84210C0F38010C4
:10802000222904D118B1E585204600F02EF8606CB5
:1080300040F0100060642046FEF776FF70BD10B57A
:108040000146406A09680968890616D40021C1847E
:108050000168143151E8002F22F0800241E800232A
:10806000002BF5D101680C3151E8002F42F040029D
:1080700041E80023002BF5D110BDFFF7A5F910BD95
:1080800010B5406AFFF7AEF910BD01680C3151E838
:10809000002F22F4907241E80023002BF5D10168F3
:1080A000143151E8002F22F0010241E80023002B97
:1080B000F5D1016B012909D101680C3151E8002F7C
:1080C00022F0100241E80023002BF5D1202180F896
:1080D000421000210163704701680C3151E8002F04
:1080E00022F0C00241E80023002BF5D1202180F8C6
:1080F0004110704708B590F84210222901D00220A3
:1081000008BD82684FF480539A4201D1016921B1C0
:10811000816A9A421BD04AB10AE00268816A5268B9
:10812000C2F308020A80816A891C08E0026972B100
:108130000268526802F07F020A70816A491C8162FB
:10814000C18D491E0904090CC18503D01BE00268DA
:108150005268F1E70168CA6822F02002CA6001682B
:10816000CA6822F48072CA6001684A6922F001027A
:108170004A61202180F8421000214163026B012AEC
:1081800003D0FFF793F8002008BD016301680C31AC
:1081900051E8002F22F0100241E80023002BF5D116
:1081A00001680A68D20602D50A6849680091818D83
:1081B000FEF7B9FEE7E7000070B504460068016904
:1081C000E26821F44051114301612169A06808432C
:1081D000616908432168CA6841F20C639A4302430B
:1081E000CA6020684169A26921F44071114341616C
:1081F0001E492068884202D1FEF712FA01E0FEF71C
:10820000FFF900EBC00101EB0012606864218000FF
:10821000B2FBF0F3B3FBF1F36FF018067343B2FB5C
:10822000F0F5B2FBF0F605EB8305322303EB051501
:10823000B5FBF1F5B6FBF1F605F0F00505EB06151B
:10824000B2FBF0F6B2FBF0F0B0FBF1F06FF0180209
:10825000504306EB800003EB0010B0FBF1F0216807
:1082600000F00F002844886070BD00000038014015
:108270002DE9F843984617460D460446089E24E02B
:10828000701C22D0FEF70CF8A0EB0800B0421AD800
:10829000CEB12068C168490717D5802D15D0402D73
:1082A00013D00168C94309070FD40168002540684D
:1082B00000902046FFF7E9FE0820606484F84050F3
:1082C0000120BDE8F8830320FBE72068006835EA59
:1082D000000004D00020B842D2D00020F1E70120F5
:1082E000F9E700000148FEF721BE0000DC30002065
:1082F000FEE7490050EAC12018BF04204A0D18BF0C
:1083000040F0010040F2FF72B2EB515F08BF40F055
:108310000200012808BF052070470907090E002840
:1083200004DB00F1E02080F80014704700F00F003B
:1083300000F1E02080F8141D70470907090E00289D
:1083400004DB00F1E02080F80014704700F00F001B
:1083500000F1E02080F8141D704730380A2801D25F
:1083600001207047002070471B4F1A4C1B4E3D15D3
:10837000E068FFF77FFA142000F0F4F92946304650
:10838000FDF77CFF0128F3D1207850B10020207048
:10839000207840B1012220213846FDF77CFF10A053
:1083A00007E00120F3E7002220213846FDF773FFA4
:1083B00013A0FFF72FF802E00A2000F0D3F92946B6
:1083C0003046FDF75BFF0128F6D0142000F0CAF913
:1083D000CEE7000024000020000C0140000801400E
:1083E000427574746F6E3A20427265617468696E8A
:1083F00067204F4E2C20504235204F4E0D0A000072
:10840000427574746F6E3A20427265617468696E69
:1084100067204F46462C20504235204F46460D0AD5
:1084200000000000FDF780FFFFF736FBFFF72EF896
:10843000FFF716F8FFF7F2F8FFF78EF8FFF7A2F84C
:108440000122284E550329463046FDF724FF26A475
:108450002046FCF7A1F882B24FF0FF3321462B48AB
:10846000FEF725FF29463046FDF70DFF002128487D
:10847000FEF700FD00F0A4F880210A20FFF702F9C2
:10848000244C60600120FFF7D0F9A0600020FFF7C6
:10849000CCF9E06020A3022200212248FFF7D8FC9B
:1084A000044621A3032200212248FFF7D1FC22A386
:1084B000022221462248FFF7CBFC22A30222002100
:1084C0002248FFF7C5FC22A3022200212248FFF721
:1084D000BFFC22A3032200212248FFF7B9FCFFF7CB
:1084E000FBF9FEE7001001400D0A2D2D2D205254FE
:1084F0004F532053797374656D205374617274699E
:108500006E67202D2D2D0D0A00000000DC300020AC
:1085100094300020240000205461736B335F56496F
:1085200050000000257E00085072696E745461731B
:108530006B000000597600085461736B3100000035
:108540005D7D00085461736B32000000F97D000806
:108550004C65645461736B006983000850776D54F7
:1085600061736B003986000810B5002823D072B6FD
:10857000124B002108385A6901E0114612680AB10D
:108580008242FAD30260B9B10860026842B143681E
:108590001C18944204D1546823444360126802605A
:1085A00041B14A685318834204D143681A444A606F
:1085B0000068086062B610BD5861E6E70000002060
:1085C000054904484861002101604FF44051416071
:1085D00070470000880000200000002030B500280F
:1085E0001DD0144CC01D20F007016069002272B636
:1085F000083110E043688B420BD370B15D1A102D27
:1086000010D343185D6005681D60416042B113607E
:108610000BE0024600680028ECD162B6002030BDB5
:10862000636102E001681AB1116062B6083030BDC2
:108630006161FAE700000020124C134D00272078FA
:10864000012805D028684763322000F08BF8F6E750
:108650000026207838B1286846630A2000F082F8A6
:10866000761C642EF5DB002620780028E7D02968E8
:10867000C6F1640048630A2000F074F8761C642E8A
:10868000F2DBDCE7240000209430002030B5040049
:1086900015D0134D00202074A86988B1E168C06826
:1086A00081420DD9E86820B1C268914208D9FFF72C
:1086B000EDFF0C48EC60016841F08051016030BD75
:1086C000094AE16852F8210028B1416A0C62C4E904
:1086D0000801446230BD42F821406462246230BD2A
:1086E0000000002004ED00E04800002030B5002824
:1086F00032D0017C01292FD004292DD0002221B1B4
:10870000022916D0032914D024E0046A1349C3684F
:10871000844202D141F823201CE051F823508542C5
:1087200001D141F82340D0E908131962D0E90813B8
:108730000FE0436A43B90A4B022902D0032903D050
:1087400004E0016AD96101E0016A1962016A09B1B4
:10875000436A4B624262026230BD00004800002062
:1087600000000020F0B5174C68B1174A9169002944
:108770000DD072B602230B745368C6188E60D06990
:108780000023054606E0206840F080502060F0BDE0
:108790000346006A10B18768B742F9D300263DB19D
:1087A00053B1C1E90803196200B1416262B6EAE758
:1087B000D1614E620E62F9E7C1E908566962D16182
:1087C000F4E7000004ED00E00000002010B50029EF
:1087D0000AD00878002807D005487844FCF796FEB0
:1087E000002801D0002010BD0248784410BD0000D0
:1087F0009A0100009201000010B500290AD0087803
:10880000002807D005487844FCF780FE002801D0F6
:10881000002010BD0248784410BD00008A0100000D
:1088200082010000FCF796BAFCF7CABB0102020302
:108830000405060708090A0B0C0D0E0F10100000A6
:108840000000000000000102030406070809000000
:108850000000010203040400000800000000000002
:1088600000020001000010000000000000000000F5
:108870003031323334353637383941424344454656
:108880004030580030313233343536373839616250
:1088900063646566403078003031323334353637C2
:1088A0003839616263646566787000303132333420
:1088B0003536373839414243444546585000000068
:1088C00002400000000000A0000000000540000081
:1088D000000000C8000000000C4000000000409CA8
:1088E00000000000194000000020BCBE0000000095
:1088F00034400000BFC91B8E00000004B5400000DA
:10890000504BCFD06607E2CF010000006C41000061
:108910003E8251AADFEEA73401000000D9420000D8
:10892000DCB5A0E23A301F97FFFFFFFFB44500001F
:10893000FD25A0C8E9A3C14FFFFFFFFFFF3F0000D7
:108940000000008000000000FF3F000000000080E9
:1089500000000000A08A000800000020480000007D
:1089600028410008E88A000848000020C8370000B5
:10897000444100081C00000043000000F8FFFFFF16
:108980000C0000000E0000000F0000002E00000090
:108990001001000043000000F8FFFFFF00404040CE
:1089A00040404040404041414141414040404040C2
:1089B000404040404040404040404040400502026E
:1089C000020202020202020202020202022020202D
:1089D0002020202020202002020202020202909089
:1089E0009090909010101010101010101010101087
:1089F00010101010101010100202020202028888DB
:108A000088888888080808080808080808080808E6
:108A100008080808080808080202020240000000CE
:108A20000000000000000000000000000000000046
:108A30000000000000000000000000000000000036
:108A40000000000000000000000000000000000026
:108A50000000000000000000000000000000000016
:108A60000000000000000000000000000000000006
:108A700000000000000000000000000000000000F6
:108A800000000000000000000000000000000000E6
:108A900000000000000000000000000000000000D6
:108AA00000000000000000000000000000000000C6
:108AB00000000000000000000000000000000000B6
:108AC00000000000010000000000000000000000A5
:108AD0000000000000000000010000001000000085
:088AE0000000000000127A0002
:04000005080040EDC2
:00000001FF
